{
  "transactions": [
    {
      "hash": "0xff7806b6ca4d7255c88562144efa6943ba4bb845c99a6a66ee52d552ef0a39eb",
      "transactionType": "CALL",
      "contractName": null,
      "contractAddress": "0x2219caa3833b7e6f24c74fd59fb8261b78113214",
      "function": "registerCreator()",
      "arguments": [],
      "transaction": {
        "from": "0xe6ffe14186c6ec0e7c39270dfb2281759ce75f70",
        "to": "0x2219caa3833b7e6f24c74fd59fb8261b78113214",
        "gas": "0xff2a",
        "value": "0x0",
        "input": "0x0c6c8fe8",
        "nonce": "0x58",
        "chainId": "0xa4ec"
      },
      "additionalContracts": [],
      "isFixedGasLimit": false
    },
    {
      "hash": "0xe75d9de932751ac1cb506fadb1784b16569e9b8abd01e70e187d8d14fa7b5527",
      "transactionType": "CALL",
      "contractName": null,
      "contractAddress": "0x2219caa3833b7e6f24c74fd59fb8261b78113214",
      "function": "createHunt(string,string)",
      "arguments": [
        "Demo Hunt",
        "A demo treasure hunt"
      ],
      "transaction": {
        "from": "0xe6ffe14186c6ec0e7c39270dfb2281759ce75f70",
        "to": "0x2219caa3833b7e6f24c74fd59fb8261b78113214",
        "gas": "0x3cfbf",
        "value": "0x0",
        "input": "0xb3dad62800000000000000000000000000000000000000000000000000000000000000400000000000000000000000000000000000000000000000000000000000000080000000000000000000000000000000000000000000000000000000000000000944656d6f2048756e7400000000000000000000000000000000000000000000000000000000000000000000000000000000000000000000000000000000000014412064656d6f2074726561737572652068756e74000000000000000000000000",
        "nonce": "0x59",
        "chainId": "0xa4ec"
      },
      "additionalContracts": [],
      "isFixedGasLimit": false
    },
    {
      "hash": "0x9c2675092c55832c14fc6ea67e932cce58f20fdda67608e9f6be5755774db361",
      "transactionType": "CALL",
      "contractName": null,
      "contractAddress": "0x2219caa3833b7e6f24c74fd59fb8261b78113214",
      "function": "addClueWithGeneratedQr(uint256,string,uint256,string)",
      "arguments": [
        "0",
        "Find the statue at the town square",
        "40000000000000000",
        "Town Square"
      ],
      "transaction": {
        "from": "0xe6ffe14186c6ec0e7c39270dfb2281759ce75f70",
        "to": "0x2219caa3833b7e6f24c74fd59fb8261b78113214",
        "gas": "0x6f596",
        "value": "0x0",
        "input": "0x0093007200000000000000000000000000000000000000000000000000000000000000000000000000000000000000000000000000000000000000000000000000000080000000000000000000000000000000000000000000000000008e1bc9bf04000000000000000000000000000000000000000000000000000000000000000000e0000000000000000000000000000000000000000000000000000000000000002246696e6420746865207374617475652061742074686520746f776e20737175617265000000000000000000000000000000000000000000000000000000000000000000000000000000000000000000000000000000000000000000000000000b546f776e20537175617265000000000000000000000000000000000000000000",
        "nonce": "0x5a",
        "chainId": "0xa4ec"
      },
      "additionalContracts": [],
      "isFixedGasLimit": false
    },
    {
      "hash": "0xe5f23841aa2e2d8b7df2c0151904fd02298e90c3dab58d58dd3d929350461b1e",
      "transactionType": "CALL",
      "contractName": null,
      "contractAddress": "0x2219caa3833b7e6f24c74fd59fb8261b78113214",
      "function": "addClueWithGeneratedQr(uint256,string,uint256,string)",
      "arguments": [
        "0",
        "Follow the river to the old bridge",
        "30000000000000000",
        "Old Bridge"
      ],
      "transaction": {
        "from": "0xe6ffe14186c6ec0e7c39270dfb2281759ce75f70",
        "to": "0x2219caa3833b7e6f24c74fd59fb8261b78113214",
        "gas": "0x65394",
        "value": "0x0",
        "input": "0x0093007200000000000000000000000000000000000000000000000000000000000000000000000000000000000000000000000000000000000000000000000000000080000000000000000000000000000000000000000000000000006a94d74f43000000000000000000000000000000000000000000000000000000000000000000e00000000000000000000000000000000000000000000000000000000000000022466f6c6c6f772074686520726976657220746f20746865206f6c6420627269646765000000000000000000000000000000000000000000000000000000000000000000000000000000000000000000000000000000000000000000000000000a4f6c642042726964676500000000000000000000000000000000000000000000",
        "nonce": "0x5b",
        "chainId": "0xa4ec"
      },
      "additionalContracts": [],
      "isFixedGasLimit": false
    },
    {
      "hash": "0x4dfb8410f0b3ad777ae35d5120bd5d6d09ade814274a1f0d730402c53d517aa7",
      "transactionType": "CALL",
      "contractName": null,
      "contractAddress": "0x2219caa3833b7e6f24c74fd59fb8261b78113214",
      "function": "addClueWithGeneratedQr(uint256,string,uint256,string)",
      "arguments": [
        "0",
        "The treasure is buried under the old oak tree",
        "30000000000000000",
        "Ancient Oak"
      ],
      "transaction": {
        "from": "0xe6ffe14186c6ec0e7c39270dfb2281759ce75f70",
        "to": "0x2219caa3833b7e6f24c74fd59fb8261b78113214",
        "gas": "0x6545b",
        "value": "0x0",
        "input": "0x0093007200000000000000000000000000000000000000000000000000000000000000000000000000000000000000000000000000000000000000000000000000000080000000000000000000000000000000000000000000000000006a94d74f43000000000000000000000000000000000000000000000000000000000000000000e0000000000000000000000000000000000000000000000000000000000000002d5468652074726561737572652069732062757269656420756e64657220746865206f6c64206f616b207472656500000000000000000000000000000000000000000000000000000000000000000000000000000000000000000000000000000b416e6369656e74204f616b000000000000000000000000000000000000000000",
        "nonce": "0x5c",
        "chainId": "0xa4ec"
      },
      "additionalContracts": [],
      "isFixedGasLimit": false
    },
    {
      "hash": "0xb2a5843a403a178e0d009f79dfae7dde3b300e9e98f03c91e7dd74d5ff799831",
      "transactionType": "CALL",
      "contractName": null,
      "contractAddress": "0x765de816845861e75a25fca122bb6898b8b1282a",
      "function": "approve(address,uint256)",
      "arguments": [
        "0x2219CaA3833B7E6f24c74fD59Fb8261b78113214",
        "100000000000000000"
      ],
      "transaction": {
        "from": "0xe6ffe14186c6ec0e7c39270dfb2281759ce75f70",
        "to": "0x765de816845861e75a25fca122bb6898b8b1282a",
        "gas": "0x1153a",
        "value": "0x0",
        "input": "0x095ea7b30000000000000000000000002219caa3833b7e6f24c74fd59fb8261b78113214000000000000000000000000000000000000000000000000016345785d8a0000",
        "nonce": "0x5d",
        "chainId": "0xa4ec"
      },
      "additionalContracts": [],
      "isFixedGasLimit": false
    },
    {
      "hash": "0xab92cb5647db7b8ae615c2b2098649a472916fa7bdbeea95dae83ab0a7abc5ce",
      "transactionType": "CALL",
      "contractName": null,
      "contractAddress": "0x2219caa3833b7e6f24c74fd59fb8261b78113214",
      "function": "fundHunt(uint256,uint256)",
      "arguments": [
        "0",
        "100000000000000000"
      ],
      "transaction": {
        "from": "0xe6ffe14186c6ec0e7c39270dfb2281759ce75f70",
        "to": "0x2219caa3833b7e6f24c74fd59fb8261b78113214",
        "gas": "0x2ea11",
        "value": "0x0",
        "input": "0x13d5f5c70000000000000000000000000000000000000000000000000000000000000000000000000000000000000000000000000000000000000000016345785d8a0000",
        "nonce": "0x5e",
        "chainId": "0xa4ec"
      },
      "additionalContracts": [],
      "isFixedGasLimit": false
    },
    {
      "hash": "0x31c57ee7325dfa73a9d56bdc7c1a29515f183f958b2cde24dba5484cbed88eea",
      "transactionType": "CALL",
      "contractName": null,
      "contractAddress": "0x2219caa3833b7e6f24c74fd59fb8261b78113214",
      "function": "publishHunt(uint256)",
      "arguments": [
        "0"
      ],
      "transaction": {
        "from": "0xe6ffe14186c6ec0e7c39270dfb2281759ce75f70",
        "to": "0x2219caa3833b7e6f24c74fd59fb8261b78113214",
        "gas": "0x93a8",
        "value": "0x0",
        "input": "0x5640b4e90000000000000000000000000000000000000000000000000000000000000000",
        "nonce": "0x5f",
        "chainId": "0xa4ec"
      },
      "additionalContracts": [],
      "isFixedGasLimit": false
    }
  ],
  "receipts": [
    {
      "status": "0x1",
      "cumulativeGasUsed": "0x73b2b",
      "logs": [
        {
          "address": "0x2219caa3833b7e6f24c74fd59fb8261b78113214",
          "topics": [
            "0x177b4e655e9aaf45f5db25b396dfba96e0152f6adcf5d9a3e7d07276431d42e7",
            "0x000000000000000000000000e6ffe14186c6ec0e7c39270dfb2281759ce75f70"
          ],
          "data": "0x",
          "blockHash": "0x00f7acd0fd7da8f0d884d1826fd7e33e96e96d27fcddf7774c753741686d47ef",
          "blockNumber": "0x32c4b97",
          "transactionHash": "0x31c57ee7325dfa73a9d56bdc7c1a29515f183f958b2cde24dba5484cbed88eea",
          "transactionIndex": "0x4",
          "logIndex": "0x5",
          "removed": false
        }
      ],
      "logsBloom": "0x00000000000000000000000000000000000000000000000000000000000000400000000000000000000000000000000000000000000000000000000000000000000000000002000000000000800000000200000000000000000000000000000000000000000000000000000000000000000000000000000000000000000040000000000000000000000000000000000000000000000000000000000000000000000000000000000000000000000000000000000000000000000000000000000000000000000000400000000000000000000000000000000000040080000000000000000000000000000004000000000000000000000000000000000000000000",
      "type": "0x2",
      "transactionHash": "0x31c57ee7325dfa73a9d56bdc7c1a29515f183f958b2cde24dba5484cbed88eea",
      "transactionIndex": "0x4",
      "blockHash": "0x00f7acd0fd7da8f0d884d1826fd7e33e96e96d27fcddf7774c753741686d47ef",
      "blockNumber": "0x32c4b97",
      "gasUsed": "0xae79",
      "effectiveGasPrice": "0x5d22e8545",
      "from": "0xe6ffe14186c6ec0e7c39270dfb2281759ce75f70",
      "to": "0x2219caa3833b7e6f24c74fd59fb8261b78113214",
      "contractAddress": null,
      "l1BaseFeeScalar": "0x0",
      "l1BlobBaseFee": "0x1c8426f",
      "l1BlobBaseFeeScalar": "0x0",
      "l1Fee": "0x0",
      "l1GasPrice": "0x1a08df43",
      "l1GasUsed": "0x640"
    },
    {
      "status": "0x1",
      "cumulativeGasUsed": "0x9fd98",
      "logs": [
        {
          "address": "0xcf16785083dd67a16db0fc4eecfb2c349ad0e269",
          "topics": [
            "0x4e13863bf5967e521c15e9e153e633a8fbd4401dd853de4571ca60c9fd9008c6",
            "0x0000000000000000000000000000000000000000000000000000000000000000",
            "0x0000000000000000000000002219caa3833b7e6f24c74fd59fb8261b78113214"
          ],
          "data": "0x000000000000000000000000000000000000000000000000000000000000006000000000000000000000000000000000000000000000000000000000000000000000000000000000000000000000000000000000000000000000000000000000000000000000000000000000000000000000000000000000000000000000000944656d6f2048756e740000000000000000000000000000000000000000000000",
          "blockHash": "0x00f7acd0fd7da8f0d884d1826fd7e33e96e96d27fcddf7774c753741686d47ef",
          "blockNumber": "0x32c4b97",
          "transactionHash": "0xe75d9de932751ac1cb506fadb1784b16569e9b8abd01e70e187d8d14fa7b5527",
          "transactionIndex": "0x5",
          "logIndex": "0x6",
          "removed": false
        },
        {
          "address": "0x2219caa3833b7e6f24c74fd59fb8261b78113214",
          "topics": [
            "0xab55084919f639a2fec08f706e428352e6240300cd9196650e65791827073720",
            "0x0000000000000000000000000000000000000000000000000000000000000000",
            "0x000000000000000000000000e6ffe14186c6ec0e7c39270dfb2281759ce75f70"
          ],
          "data": "0x",
          "blockHash": "0x00f7acd0fd7da8f0d884d1826fd7e33e96e96d27fcddf7774c753741686d47ef",
          "blockNumber": "0x32c4b97",
          "transactionHash": "0xe75d9de932751ac1cb506fadb1784b16569e9b8abd01e70e187d8d14fa7b5527",
          "transactionIndex": "0x5",
          "logIndex": "0x7",
          "removed": false
        }
      ],
      "logsBloom": "0x00000000000000000000000000000000000000000000000000000000000000400000000000000000000000000000000000000000000000000000000000000000000000000000000000000000800000000200000020010000000000000000000000000000020000200000000000000800000000020000000000000000000040000000000000000000000100000000000000004000000000000000000000000000000000000000000000000000000000000000000000000000000000000000000000000000000000000000000000020000000000800000000200040080000020000000000000000000000000400000000000000000008000010000000000000000",
      "type": "0x2",
      "transactionHash": "0xe75d9de932751ac1cb506fadb1784b16569e9b8abd01e70e187d8d14fa7b5527",
      "transactionIndex": "0x5",
      "blockHash": "0x00f7acd0fd7da8f0d884d1826fd7e33e96e96d27fcddf7774c753741686d47ef",
      "blockNumber": "0x32c4b97",
      "gasUsed": "0x2c26d",
      "effectiveGasPrice": "0x5d22e8545",
      "from": "0xe6ffe14186c6ec0e7c39270dfb2281759ce75f70",
      "to": "0x2219caa3833b7e6f24c74fd59fb8261b78113214",
      "contractAddress": null,
      "l1BaseFeeScalar": "0x0",
      "l1BlobBaseFee": "0x1c8426f",
      "l1BlobBaseFeeScalar": "0x0",
      "l1Fee": "0x0",
      "l1GasPrice": "0x1a08df43",
      "l1GasUsed": "0x6a4"
    },
    {
      "status": "0x1",
      "cumulativeGasUsed": "0xf076f",
      "logs": [
        {
          "address": "0xcf16785083dd67a16db0fc4eecfb2c349ad0e269",
          "topics": [
            "0xb79b7b154ffe48013fed56fafd7a5cd21aba59aec515ff7f4bc6bf30db1b293d",
            "0x0000000000000000000000000000000000000000000000000000000000000000"
          ],
          "data": "0x0000000000000000000000000000000000000000000000000000000000000000000000000000000000000000000000000000000000000000008e1bc9bf040000",
          "blockHash": "0x00f7acd0fd7da8f0d884d1826fd7e33e96e96d27fcddf7774c753741686d47ef",
          "blockNumber": "0x32c4b97",
          "transactionHash": "0xe5f23841aa2e2d8b7df2c0151904fd02298e90c3dab58d58dd3d929350461b1e",
          "transactionIndex": "0x6",
          "logIndex": "0x8",
          "removed": false
        },
        {
          "address": "0x2219caa3833b7e6f24c74fd59fb8261b78113214",
          "topics": [
            "0x761f939497257d00446149a5137ed85ce054943dc7a356c104530249c6a94d20",
            "0x0000000000000000000000000000000000000000000000000000000000000000"
          ],
          "data": "0x00000000000000000000000000000000000000000000000000000000000000000000000000000000000000000000000000000000000000000000000000000040000000000000000000000000000000000000000000000000000000000000006063656c6f2d68756e743a2f2f68756e742f302f636c75652f302f746f6b656e2f33616230653834386333356137663030663730353534656632623731323961323830656363316433356230623836353434356235666634386564323663323034",
          "blockHash": "0x00f7acd0fd7da8f0d884d1826fd7e33e96e96d27fcddf7774c753741686d47ef",
          "blockNumber": "0x32c4b97",
          "transactionHash": "0xe5f23841aa2e2d8b7df2c0151904fd02298e90c3dab58d58dd3d929350461b1e",
          "transactionIndex": "0x6",
          "logIndex": "0x9",
          "removed": false
        }
      ],
      "logsBloom": "0x00000400000000000000000000000000000000000000000000000000000000400000000000000000000000000000000000000000000000000000000000000000000000000010000000000000000000000200000000000000000000000000000000000000020000000000000000000800000000020000000000000000000040000000010008000000000000000000000000004000000000000000000000000000000000000000000000000000000000000000000000000000000000000000000000000800000000000000000000000000000000000000000000000000000020000000000000000000000000000000004000000000000000010000000000000000",
      "type": "0x2",
      "transactionHash": "0xe5f23841aa2e2d8b7df2c0151904fd02298e90c3dab58d58dd3d929350461b1e",
      "transactionIndex": "0x6",
      "blockHash": "0x00f7acd0fd7da8f0d884d1826fd7e33e96e96d27fcddf7774c753741686d47ef",
      "blockNumber": "0x32c4b97",
      "gasUsed": "0x509d7",
      "effectiveGasPrice": "0x5d22e8545",
      "from": "0xe6ffe14186c6ec0e7c39270dfb2281759ce75f70",
      "to": "0x2219caa3833b7e6f24c74fd59fb8261b78113214",
      "contractAddress": null,
      "l1BaseFeeScalar": "0x0",
      "l1BlobBaseFee": "0x1c8426f",
      "l1BlobBaseFeeScalar": "0x0",
      "l1Fee": "0x0",
      "l1GasPrice": "0x1a08df43",
      "l1GasUsed": "0x7d8"
    },
    {
      "status": "0x1",
      "cumulativeGasUsed": "0xdfc7a",
      "logs": [
        {
          "address": "0xcf16785083dd67a16db0fc4eecfb2c349ad0e269",
          "topics": [
            "0xb79b7b154ffe48013fed56fafd7a5cd21aba59aec515ff7f4bc6bf30db1b293d",
            "0x0000000000000000000000000000000000000000000000000000000000000000"
          ],
          "data": "0x0000000000000000000000000000000000000000000000000000000000000001000000000000000000000000000000000000000000000000006a94d74f430000",
          "blockHash": "0x1edc13d2839ade33ea11613abca9097223eb573bfd3b3022434c2bec247c943c",
          "blockNumber": "0x32c4b98",
          "transactionHash": "0x9c2675092c55832c14fc6ea67e932cce58f20fdda67608e9f6be5755774db361",
          "transactionIndex": "0x6",
          "logIndex": "0xe",
          "removed": false
        },
        {
          "address": "0x2219caa3833b7e6f24c74fd59fb8261b78113214",
          "topics": [
            "0x761f939497257d00446149a5137ed85ce054943dc7a356c104530249c6a94d20",
            "0x0000000000000000000000000000000000000000000000000000000000000000"
          ],
          "data": "0x00000000000000000000000000000000000000000000000000000000000000010000000000000000000000000000000000000000000000000000000000000040000000000000000000000000000000000000000000000000000000000000006063656c6f2d68756e743a2f2f68756e742f302f636c75652f312f746f6b656e2f30643530663935623338623735663866643537303539383633313531363065373638636638383337396339353730313662633035386432316562326561373031",
          "blockHash": "0x1edc13d2839ade33ea11613abca9097223eb573bfd3b3022434c2bec247c943c",
          "blockNumber": "0x32c4b98",
          "transactionHash": "0x9c2675092c55832c14fc6ea67e932cce58f20fdda67608e9f6be5755774db361",
          "transactionIndex": "0x6",
          "logIndex": "0xf",
          "removed": false
        }
      ],
      "logsBloom": "0x00000400000000000000000000000000000000000000000000000000000000400000000000000000000000000000000000000000000000000000000000000000000000000010000000000000000000000200000000000000000000000000000000000000020000000000000000000800000000020000000000000000000040000000010008000000000000000000000000004000000000000000000000000000000000000000000000000000000000000000000000000000000000000000000000000800000000000000000000000000000000000000000000000000000020000000000000000000000000000000004000000000000000010000000000000000",
      "type": "0x2",
      "transactionHash": "0x9c2675092c55832c14fc6ea67e932cce58f20fdda67608e9f6be5755774db361",
      "transactionIndex": "0x6",
      "blockHash": "0x1edc13d2839ade33ea11613abca9097223eb573bfd3b3022434c2bec247c943c",
      "blockNumber": "0x32c4b98",
      "gasUsed": "0x4948d",
      "effectiveGasPrice": "0x5d22e8545",
      "from": "0xe6ffe14186c6ec0e7c39270dfb2281759ce75f70",
      "to": "0x2219caa3833b7e6f24c74fd59fb8261b78113214",
      "contractAddress": null,
      "l1BaseFeeScalar": "0x0",
      "l1BlobBaseFee": "0x1c8426f",
      "l1BlobBaseFeeScalar": "0x0",
      "l1Fee": "0x0",
      "l1GasPrice": "0x1a08df43",
      "l1GasUsed": "0x7d8"
    },
    {
      "status": "0x1",
      "cumulativeGasUsed": "0x129197",
      "logs": [
        {
          "address": "0xcf16785083dd67a16db0fc4eecfb2c349ad0e269",
          "topics": [
            "0xb79b7b154ffe48013fed56fafd7a5cd21aba59aec515ff7f4bc6bf30db1b293d",
            "0x0000000000000000000000000000000000000000000000000000000000000000"
          ],
          "data": "0x0000000000000000000000000000000000000000000000000000000000000002000000000000000000000000000000000000000000000000006a94d74f430000",
          "blockHash": "0x1edc13d2839ade33ea11613abca9097223eb573bfd3b3022434c2bec247c943c",
          "blockNumber": "0x32c4b98",
          "transactionHash": "0xff7806b6ca4d7255c88562144efa6943ba4bb845c99a6a66ee52d552ef0a39eb",
          "transactionIndex": "0x7",
          "logIndex": "0x10",
          "removed": false
        },
        {
          "address": "0x2219caa3833b7e6f24c74fd59fb8261b78113214",
          "topics": [
            "0x761f939497257d00446149a5137ed85ce054943dc7a356c104530249c6a94d20",
            "0x0000000000000000000000000000000000000000000000000000000000000000"
          ],
          "data": "0x00000000000000000000000000000000000000000000000000000000000000020000000000000000000000000000000000000000000000000000000000000040000000000000000000000000000000000000000000000000000000000000006063656c6f2d68756e743a2f2f68756e742f302f636c75652f322f746f6b656e2f31356165303765396133393961636638336331303661316263323135656131353931326164363063613062353262373162363137313462303061663833386633",
          "blockHash": "0x1edc13d2839ade33ea11613abca9097223eb573bfd3b3022434c2bec247c943c",
          "blockNumber": "0x32c4b98",
          "transactionHash": "0xff7806b6ca4d7255c88562144efa6943ba4bb845c99a6a66ee52d552ef0a39eb",
          "transactionIndex": "0x7",
          "logIndex": "0x11",
          "removed": false
        }
      ],
      "logsBloom": "0x00000400000000000000000000000000000000000000000000000000000000400000000000000000000000000000000000000000000000000000000000000000000000000010000000000000000000000200000000000000000000000000000000000000020000000000000000000800000000020000000000000000000040000000010008000000000000000000000000004000000000000000000000000000000000000000000000000000000000000000000000000000000000000000000000000800000000000000000000000000000000000000000000000000000020000000000000000000000000000000004000000000000000010000000000000000",
      "type": "0x2",
      "transactionHash": "0xff7806b6ca4d7255c88562144efa6943ba4bb845c99a6a66ee52d552ef0a39eb",
      "transactionIndex": "0x7",
      "blockHash": "0x1edc13d2839ade33ea11613abca9097223eb573bfd3b3022434c2bec247c943c",
      "blockNumber": "0x32c4b98",
      "gasUsed": "0x4951d",
      "effectiveGasPrice": "0x5d22e8545",
      "from": "0xe6ffe14186c6ec0e7c39270dfb2281759ce75f70",
      "to": "0x2219caa3833b7e6f24c74fd59fb8261b78113214",
      "contractAddress": null,
      "l1BaseFeeScalar": "0x0",
      "l1BlobBaseFee": "0x1c8426f",
      "l1BlobBaseFeeScalar": "0x0",
      "l1Fee": "0x0",
      "l1GasPrice": "0x1a08df43",
      "l1GasUsed": "0x8c9"
    },
    {
      "status": "0x1",
      "cumulativeGasUsed": "0x135a4d",
      "logs": [
        {
          "address": "0x765de816845861e75a25fca122bb6898b8b1282a",
          "topics": [
            "0x8c5be1e5ebec7d5bd14f71427d1e84f3dd0314c0f7b2291e5b200ac8c7c3b925",
            "0x000000000000000000000000e6ffe14186c6ec0e7c39270dfb2281759ce75f70",
            "0x0000000000000000000000002219caa3833b7e6f24c74fd59fb8261b78113214"
          ],
          "data": "0x000000000000000000000000000000000000000000000000016345785d8a0000",
          "blockHash": "0x1edc13d2839ade33ea11613abca9097223eb573bfd3b3022434c2bec247c943c",
          "blockNumber": "0x32c4b98",
          "transactionHash": "0xb2a5843a403a178e0d009f79dfae7dde3b300e9e98f03c91e7dd74d5ff799831",
          "transactionIndex": "0x8",
          "logIndex": "0x12",
          "removed": false
        }
      ],
      "logsBloom": "0x00000000000000000000000000000000000000000000000000000000000000000000080000000000000000002000000000000000000000000000000000200000000000000000000000000000800000000000000000000000000000000000000000000000000000200000000000000000000000000000000000000000000000000000000000000000000100000000000000000000000000000000000000000000020000000000000000000000000000000000000000000000000000000000000000000000000000000000000000000000000800000000000200040080000000000010000000000000000000000000000000000000000000000000000000000000",
      "type": "0x2",
      "transactionHash": "0xb2a5843a403a178e0d009f79dfae7dde3b300e9e98f03c91e7dd74d5ff799831",
      "transactionIndex": "0x8",
      "blockHash": "0x1edc13d2839ade33ea11613abca9097223eb573bfd3b3022434c2bec247c943c",
      "blockNumber": "0x32c4b98",
      "gasUsed": "0xc8b6",
      "effectiveGasPrice": "0x5d22e8545",
      "from": "0xe6ffe14186c6ec0e7c39270dfb2281759ce75f70",
      "to": "0x765de816845861e75a25fca122bb6898b8b1282a",
      "contractAddress": null,
      "l1BaseFeeScalar": "0x0",
      "l1BlobBaseFee": "0x1c8426f",
      "l1BlobBaseFeeScalar": "0x0",
      "l1Fee": "0x0",
      "l1GasPrice": "0x1a08df43",
      "l1GasUsed": "0x640"
    },
    {
      "status": "0x1",
      "cumulativeGasUsed": "0x157671",
      "logs": [
        {
          "address": "0x765de816845861e75a25fca122bb6898b8b1282a",
          "topics": [
            "0x8c5be1e5ebec7d5bd14f71427d1e84f3dd0314c0f7b2291e5b200ac8c7c3b925",
            "0x000000000000000000000000e6ffe14186c6ec0e7c39270dfb2281759ce75f70",
            "0x0000000000000000000000002219caa3833b7e6f24c74fd59fb8261b78113214"
          ],
          "data": "0x0000000000000000000000000000000000000000000000000000000000000000",
          "blockHash": "0x1edc13d2839ade33ea11613abca9097223eb573bfd3b3022434c2bec247c943c",
          "blockNumber": "0x32c4b98",
          "transactionHash": "0x4dfb8410f0b3ad777ae35d5120bd5d6d09ade814274a1f0d730402c53d517aa7",
          "transactionIndex": "0x9",
          "logIndex": "0x13",
          "removed": false
        },
        {
          "address": "0x765de816845861e75a25fca122bb6898b8b1282a",
          "topics": [
            "0xddf252ad1be2c89b69c2b068fc378daa952ba7f163c4a11628f55a4df523b3ef",
            "0x000000000000000000000000e6ffe14186c6ec0e7c39270dfb2281759ce75f70",
            "0x0000000000000000000000002219caa3833b7e6f24c74fd59fb8261b78113214"
          ],
          "data": "0x000000000000000000000000000000000000000000000000016345785d8a0000",
          "blockHash": "0x1edc13d2839ade33ea11613abca9097223eb573bfd3b3022434c2bec247c943c",
          "blockNumber": "0x32c4b98",
          "transactionHash": "0x4dfb8410f0b3ad777ae35d5120bd5d6d09ade814274a1f0d730402c53d517aa7",
          "transactionIndex": "0x9",
          "logIndex": "0x14",
          "removed": false
        },
        {
          "address": "0x765de816845861e75a25fca122bb6898b8b1282a",
          "topics": [
            "0x8c5be1e5ebec7d5bd14f71427d1e84f3dd0314c0f7b2291e5b200ac8c7c3b925",
            "0x0000000000000000000000002219caa3833b7e6f24c74fd59fb8261b78113214",
            "0x000000000000000000000000cf16785083dd67a16db0fc4eecfb2c349ad0e269"
          ],
          "data": "0x000000000000000000000000000000000000000000000000016345785d8a0000",
          "blockHash": "0x1edc13d2839ade33ea11613abca9097223eb573bfd3b3022434c2bec247c943c",
          "blockNumber": "0x32c4b98",
          "transactionHash": "0x4dfb8410f0b3ad777ae35d5120bd5d6d09ade814274a1f0d730402c53d517aa7",
          "transactionIndex": "0x9",
          "logIndex": "0x15",
          "removed": false
        },
        {
          "address": "0x765de816845861e75a25fca122bb6898b8b1282a",
          "topics": [
            "0x8c5be1e5ebec7d5bd14f71427d1e84f3dd0314c0f7b2291e5b200ac8c7c3b925",
            "0x0000000000000000000000002219caa3833b7e6f24c74fd59fb8261b78113214",
            "0x000000000000000000000000cf16785083dd67a16db0fc4eecfb2c349ad0e269"
          ],
          "data": "0x0000000000000000000000000000000000000000000000000000000000000000",
          "blockHash": "0x1edc13d2839ade33ea11613abca9097223eb573bfd3b3022434c2bec247c943c",
          "blockNumber": "0x32c4b98",
          "transactionHash": "0x4dfb8410f0b3ad777ae35d5120bd5d6d09ade814274a1f0d730402c53d517aa7",
          "transactionIndex": "0x9",
          "logIndex": "0x16",
          "removed": false
        },
        {
          "address": "0x765de816845861e75a25fca122bb6898b8b1282a",
          "topics": [
            "0xddf252ad1be2c89b69c2b068fc378daa952ba7f163c4a11628f55a4df523b3ef",
            "0x0000000000000000000000002219caa3833b7e6f24c74fd59fb8261b78113214",
            "0x000000000000000000000000cf16785083dd67a16db0fc4eecfb2c349ad0e269"
          ],
          "data": "0x000000000000000000000000000000000000000000000000016345785d8a0000",
          "blockHash": "0x1edc13d2839ade33ea11613abca9097223eb573bfd3b3022434c2bec247c943c",
          "blockNumber": "0x32c4b98",
          "transactionHash": "0x4dfb8410f0b3ad777ae35d5120bd5d6d09ade814274a1f0d730402c53d517aa7",
          "transactionIndex": "0x9",
          "logIndex": "0x17",
          "removed": false
        },
        {
          "address": "0xcf16785083dd67a16db0fc4eecfb2c349ad0e269",
          "topics": [
            "0x78d546d8b8a7f40ab99e496db8532aa8c7110533a78cf8e810befeb1c92160d0",
            "0x0000000000000000000000000000000000000000000000000000000000000000",
            "0x0000000000000000000000002219caa3833b7e6f24c74fd59fb8261b78113214"
          ],
          "data": "0x000000000000000000000000000000000000000000000000016345785d8a0000",
          "blockHash": "0x1edc13d2839ade33ea11613abca9097223eb573bfd3b3022434c2bec247c943c",
          "blockNumber": "0x32c4b98",
          "transactionHash": "0x4dfb8410f0b3ad777ae35d5120bd5d6d09ade814274a1f0d730402c53d517aa7",
          "transactionIndex": "0x9",
          "logIndex": "0x18",
          "removed": false
        },
        {
          "address": "0x2219caa3833b7e6f24c74fd59fb8261b78113214",
          "topics": [
            "0x15b254e6d59546e05673736768f3699e31af72c8dab1194ee701ae85f515b408",
            "0x0000000000000000000000000000000000000000000000000000000000000000"
          ],
          "data": "0x000000000000000000000000000000000000000000000000016345785d8a0000",
          "blockHash": "0x1edc13d2839ade33ea11613abca9097223eb573bfd3b3022434c2bec247c943c",
          "blockNumber": "0x32c4b98",
          "transactionHash": "0x4dfb8410f0b3ad777ae35d5120bd5d6d09ade814274a1f0d730402c53d517aa7",
          "transactionIndex": "0x9",
          "logIndex": "0x19",
          "removed": false
        }
      ],
      "logsBloom": "0x00000100000000000000000000000000000000000000000000000000000000400000080000000000000000002000000000000000010000200000000000200000000002000000000000000008a00000000200000000000000000000000000000000000000020000200000000000400800000000020000000000000010000040000000000000000000000100000000000000004000000000000000000000000000020000000000000000000000000000000000000000000800000000000000000000000002000000000000000000000000000800000000000200040180000020000010000000000200000000000000000000000000000000010000000000000000",
      "type": "0x2",
      "transactionHash": "0x4dfb8410f0b3ad777ae35d5120bd5d6d09ade814274a1f0d730402c53d517aa7",
      "transactionIndex": "0x9",
      "blockHash": "0x1edc13d2839ade33ea11613abca9097223eb573bfd3b3022434c2bec247c943c",
      "blockNumber": "0x32c4b98",
      "gasUsed": "0x21c24",
      "effectiveGasPrice": "0x5d22e8545",
      "from": "0xe6ffe14186c6ec0e7c39270dfb2281759ce75f70",
      "to": "0x2219caa3833b7e6f24c74fd59fb8261b78113214",
      "contractAddress": null,
      "l1BaseFeeScalar": "0x0",
      "l1BlobBaseFee": "0x1c8426f",
      "l1BlobBaseFeeScalar": "0x0",
      "l1Fee": "0x0",
      "l1GasPrice": "0x1a08df43",
      "l1GasUsed": "0x640"
    },
    {
      "status": "0x1",
      "cumulativeGasUsed": "0xac618",
      "logs": [
        {
          "address": "0x2219caa3833b7e6f24c74fd59fb8261b78113214",
          "topics": [
            "0xf3de52a7ca1a3a37721fcef7dae4c389c0fe6f3b746e223f73153a838b7d1caf",
            "0x0000000000000000000000000000000000000000000000000000000000000000"
          ],
          "data": "0x",
          "blockHash": "0x2a16dc89ba0e56d29e886c991e21c2f1e508a44aa72e50e72736ec117395099d",
          "blockNumber": "0x32c4b99",
          "transactionHash": "0xab92cb5647db7b8ae615c2b2098649a472916fa7bdbeea95dae83ab0a7abc5ce",
          "transactionIndex": "0x4",
          "logIndex": "0x13",
          "removed": false
        }
      ],
      "logsBloom": "0x00000000000010000000000000000000000000000000000000000000000000400000000000000000000000000000000000000000000000000000000000000000000000000000000000000000000000000200000000000000000000000000000000000000020000000000000000000800000000000000000000000000000040000000000000000000000000000000000000000000000000000000000000000000000000000000000002000000000000000000000000000000000000000000000000000000000000000000000000000000000000000000000000000000000020000000000000000000000000000000000000000000000000000100000000000000",
      "type": "0x2",
      "transactionHash": "0xab92cb5647db7b8ae615c2b2098649a472916fa7bdbeea95dae83ab0a7abc5ce",
      "transactionIndex": "0x4",
      "blockHash": "0x2a16dc89ba0e56d29e886c991e21c2f1e508a44aa72e50e72736ec117395099d",
      "blockNumber": "0x32c4b99",
      "gasUsed": "0x6ae7",
      "effectiveGasPrice": "0x5d22e8545",
      "from": "0xe6ffe14186c6ec0e7c39270dfb2281759ce75f70",
      "to": "0x2219caa3833b7e6f24c74fd59fb8261b78113214",
      "contractAddress": null,
      "l1BaseFeeScalar": "0x0",
      "l1BlobBaseFee": "0x1c8426f",
      "l1BlobBaseFeeScalar": "0x0",
      "l1Fee": "0x0",
      "l1GasPrice": "0x1a08df43",
      "l1GasUsed": "0x640"
    }
  ],
  "libraries": [],
  "pending": [],
  "returns": {},
  "timestamp": 1765135345999,
  "chain": 42220,
  "commit": "4fb1cfd"
}