{
  "transactions": [
    {
      "hash": "0x788d734a4fe03d79dba9d409a68dfc5fe9aaac2e76e88dd7365a7bec416a10a3",
      "transactionType": "CALL",
      "contractName": null,
      "contractAddress": "0x2219caa3833b7e6f24c74fd59fb8261b78113214",
      "function": "registerCreator()",
      "arguments": [],
      "transaction": {
        "from": "0xe6ffe14186c6ec0e7c39270dfb2281759ce75f70",
        "to": "0x2219caa3833b7e6f24c74fd59fb8261b78113214",
        "gas": "0x859d",
        "value": "0x0",
        "input": "0x0c6c8fe8",
        "nonce": "0x63",
        "chainId": "0xa4ec"
      },
      "additionalContracts": [],
      "isFixedGasLimit": false
    },
    {
      "hash": "0x2a7933cd5c631be7db96e32027c8f6377db83ddf5c397297908e7468aad305fe",
      "transactionType": "CALL",
      "contractName": null,
      "contractAddress": "0x2219caa3833b7e6f24c74fd59fb8261b78113214",
      "function": "createHunt(string,string)",
      "arguments": [
        "Demo Hunt",
        "A demo treasure hunt"
      ],
      "transaction": {
        "from": "0xe6ffe14186c6ec0e7c39270dfb2281759ce75f70",
        "to": "0x2219caa3833b7e6f24c74fd59fb8261b78113214",
        "gas": "0x3a774",
        "value": "0x0",
        "input": "0xb3dad62800000000000000000000000000000000000000000000000000000000000000400000000000000000000000000000000000000000000000000000000000000080000000000000000000000000000000000000000000000000000000000000000944656d6f2048756e7400000000000000000000000000000000000000000000000000000000000000000000000000000000000000000000000000000000000014412064656d6f2074726561737572652068756e74000000000000000000000000",
        "nonce": "0x64",
        "chainId": "0xa4ec"
      },
      "additionalContracts": [],
      "isFixedGasLimit": false
    },
    {
      "hash": "0xd9ef981086491661b7750d56cdbbdb65b9fa140dc34818498f3356e1e030faeb",
      "transactionType": "CALL",
      "contractName": null,
      "contractAddress": "0x2219caa3833b7e6f24c74fd59fb8261b78113214",
      "function": "addClueWithGeneratedQr(uint256,string,uint256,string)",
      "arguments": [
        "2",
        "Find the statue at the town square",
        "40000000000000000",
        "Town Square"
      ],
      "transaction": {
        "from": "0xe6ffe14186c6ec0e7c39270dfb2281759ce75f70",
        "to": "0x2219caa3833b7e6f24c74fd59fb8261b78113214",
        "gas": "0x704af",
        "value": "0x0",
        "input": "0x0093007200000000000000000000000000000000000000000000000000000000000000020000000000000000000000000000000000000000000000000000000000000080000000000000000000000000000000000000000000000000008e1bc9bf04000000000000000000000000000000000000000000000000000000000000000000e0000000000000000000000000000000000000000000000000000000000000002246696e6420746865207374617475652061742074686520746f776e20737175617265000000000000000000000000000000000000000000000000000000000000000000000000000000000000000000000000000000000000000000000000000b546f776e20537175617265000000000000000000000000000000000000000000",
        "nonce": "0x65",
        "chainId": "0xa4ec"
      },
      "additionalContracts": [],
      "isFixedGasLimit": false
    },
    {
      "hash": "0xcf63e862c8b0463e83a56e768d042781119ccd78324acb04b1818b7ad8ffc053",
      "transactionType": "CALL",
      "contractName": null,
      "contractAddress": "0x2219caa3833b7e6f24c74fd59fb8261b78113214",
      "function": "addClueWithGeneratedQr(uint256,string,uint256,string)",
      "arguments": [
        "2",
        "Follow the river to the old bridge",
        "30000000000000000",
        "Old Bridge"
      ],
      "transaction": {
        "from": "0xe6ffe14186c6ec0e7c39270dfb2281759ce75f70",
        "to": "0x2219caa3833b7e6f24c74fd59fb8261b78113214",
        "gas": "0x6bad7",
        "value": "0x0",
        "input": "0x0093007200000000000000000000000000000000000000000000000000000000000000020000000000000000000000000000000000000000000000000000000000000080000000000000000000000000000000000000000000000000006a94d74f43000000000000000000000000000000000000000000000000000000000000000000e00000000000000000000000000000000000000000000000000000000000000022466f6c6c6f772074686520726976657220746f20746865206f6c6420627269646765000000000000000000000000000000000000000000000000000000000000000000000000000000000000000000000000000000000000000000000000000a4f6c642042726964676500000000000000000000000000000000000000000000",
        "nonce": "0x66",
        "chainId": "0xa4ec"
      },
      "additionalContracts": [],
      "isFixedGasLimit": false
    },
    {
      "hash": "0xf1021f3133dcfd8890816017998ce70867dd37936e7dfbb8cf766abcb8ab171d",
      "transactionType": "CALL",
      "contractName": null,
      "contractAddress": "0x2219caa3833b7e6f24c74fd59fb8261b78113214",
      "function": "addClueWithGeneratedQr(uint256,string,uint256,string)",
      "arguments": [
        "2",
        "The treasure is buried under the old oak tree",
        "30000000000000000",
        "Ancient Oak"
      ],
      "transaction": {
        "from": "0xe6ffe14186c6ec0e7c39270dfb2281759ce75f70",
        "to": "0x2219caa3833b7e6f24c74fd59fb8261b78113214",
        "gas": "0x6bba9",
        "value": "0x0",
        "input": "0x0093007200000000000000000000000000000000000000000000000000000000000000020000000000000000000000000000000000000000000000000000000000000080000000000000000000000000000000000000000000000000006a94d74f43000000000000000000000000000000000000000000000000000000000000000000e0000000000000000000000000000000000000000000000000000000000000002d5468652074726561737572652069732062757269656420756e64657220746865206f6c64206f616b207472656500000000000000000000000000000000000000000000000000000000000000000000000000000000000000000000000000000b416e6369656e74204f616b000000000000000000000000000000000000000000",
        "nonce": "0x67",
        "chainId": "0xa4ec"
      },
      "additionalContracts": [],
      "isFixedGasLimit": false
    },
    {
      "hash": "0x13e9a2a23ef961a23f1bf44f97692d627159a43dab61dde220ce4e14754af08b",
      "transactionType": "CALL",
      "contractName": null,
      "contractAddress": "0x765de816845861e75a25fca122bb6898b8b1282a",
      "function": "approve(address,uint256)",
      "arguments": [
        "0x2219CaA3833B7E6f24c74fD59Fb8261b78113214",
        "100000000000000000"
      ],
      "transaction": {
        "from": "0xe6ffe14186c6ec0e7c39270dfb2281759ce75f70",
        "to": "0x765de816845861e75a25fca122bb6898b8b1282a",
        "gas": "0x1153a",
        "value": "0x0",
        "input": "0x095ea7b30000000000000000000000002219caa3833b7e6f24c74fd59fb8261b78113214000000000000000000000000000000000000000000000000016345785d8a0000",
        "nonce": "0x68",
        "chainId": "0xa4ec"
      },
      "additionalContracts": [],
      "isFixedGasLimit": false
    },
    {
      "hash": "0x3a27221c324e3205bce917f571f772f2d3658117d73b650c111cc3fb3e8b316c",
      "transactionType": "CALL",
      "contractName": null,
      "contractAddress": "0x2219caa3833b7e6f24c74fd59fb8261b78113214",
      "function": "fundHunt(uint256,uint256)",
      "arguments": [
        "2",
        "100000000000000000"
      ],
      "transaction": {
        "from": "0xe6ffe14186c6ec0e7c39270dfb2281759ce75f70",
        "to": "0x2219caa3833b7e6f24c74fd59fb8261b78113214",
        "gas": "0x2a04e",
        "value": "0x0",
        "input": "0x13d5f5c70000000000000000000000000000000000000000000000000000000000000002000000000000000000000000000000000000000000000000016345785d8a0000",
        "nonce": "0x69",
        "chainId": "0xa4ec"
      },
      "additionalContracts": [],
      "isFixedGasLimit": false
    },
    {
      "hash": "0x82c5ccbfa0fae57901f9f751ef6ff73c68c42deae812360ae2d4d5da1e5fa898",
      "transactionType": "CALL",
      "contractName": null,
      "contractAddress": "0x2219caa3833b7e6f24c74fd59fb8261b78113214",
      "function": "publishHunt(uint256)",
      "arguments": [
        "2"
      ],
      "transaction": {
        "from": "0xe6ffe14186c6ec0e7c39270dfb2281759ce75f70",
        "to": "0x2219caa3833b7e6f24c74fd59fb8261b78113214",
        "gas": "0x9c69",
        "value": "0x0",
        "input": "0x5640b4e90000000000000000000000000000000000000000000000000000000000000002",
        "nonce": "0x6a",
        "chainId": "0xa4ec"
      },
      "additionalContracts": [],
      "isFixedGasLimit": false
    }
  ],
  "receipts": [
    {
      "status": "0x1",
      "cumulativeGasUsed": "0x1b62d7",
      "logs": [
        {
          "address": "0x2219caa3833b7e6f24c74fd59fb8261b78113214",
          "topics": [
            "0x177b4e655e9aaf45f5db25b396dfba96e0152f6adcf5d9a3e7d07276431d42e7",
            "0x000000000000000000000000e6ffe14186c6ec0e7c39270dfb2281759ce75f70"
          ],
          "data": "0x",
          "blockHash": "0x8dc7541c52ecf1c07c084fb45c56d1b69f0353348834e11187122f96465f5ff9",
          "blockNumber": "0x32c9060",
          "transactionHash": "0x788d734a4fe03d79dba9d409a68dfc5fe9aaac2e76e88dd7365a7bec416a10a3",
          "transactionIndex": "0xc",
          "logIndex": "0x3c",
          "removed": false
        }
      ],
      "logsBloom": "0x00000000000000000000000000000000000000000000000000000000000000400000000000000000000000000000000000000000000000000000000000000000000000000002000000000000800000000200000000000000000000000000000000000000000000000000000000000000000000000000000000000000000040000000000000000000000000000000000000000000000000000000000000000000000000000000000000000000000000000000000000000000000000000000000000000000000000400000000000000000000000000000000000040080000000000000000000000000000004000000000000000000000000000000000000000000",
      "type": "0x2",
      "transactionHash": "0x788d734a4fe03d79dba9d409a68dfc5fe9aaac2e76e88dd7365a7bec416a10a3",
      "transactionIndex": "0xc",
      "blockHash": "0x8dc7541c52ecf1c07c084fb45c56d1b69f0353348834e11187122f96465f5ff9",
      "blockNumber": "0x32c9060",
      "gasUsed": "0x60bd",
      "effectiveGasPrice": "0x5d22cfc3c",
      "from": "0xe6ffe14186c6ec0e7c39270dfb2281759ce75f70",
      "to": "0x2219caa3833b7e6f24c74fd59fb8261b78113214",
      "contractAddress": null,
      "l1BaseFeeScalar": "0x0",
      "l1BlobBaseFee": "0x14d4447",
      "l1BlobBaseFeeScalar": "0x0",
      "l1Fee": "0x0",
      "l1GasPrice": "0x140b4456",
      "l1GasUsed": "0x640"
    },
    {
      "status": "0x1",
      "cumulativeGasUsed": "0x1de278",
      "logs": [
        {
          "address": "0xcf16785083dd67a16db0fc4eecfb2c349ad0e269",
          "topics": [
            "0x4e13863bf5967e521c15e9e153e633a8fbd4401dd853de4571ca60c9fd9008c6",
            "0x0000000000000000000000000000000000000000000000000000000000000002",
            "0x0000000000000000000000002219caa3833b7e6f24c74fd59fb8261b78113214"
          ],
          "data": "0x000000000000000000000000000000000000000000000000000000000000006000000000000000000000000000000000000000000000000000000000000000000000000000000000000000000000000000000000000000000000000000000000000000000000000000000000000000000000000000000000000000000000000944656d6f2048756e740000000000000000000000000000000000000000000000",
          "blockHash": "0x8dc7541c52ecf1c07c084fb45c56d1b69f0353348834e11187122f96465f5ff9",
          "blockNumber": "0x32c9060",
          "transactionHash": "0x82c5ccbfa0fae57901f9f751ef6ff73c68c42deae812360ae2d4d5da1e5fa898",
          "transactionIndex": "0xd",
          "logIndex": "0x3d",
          "removed": false
        },
        {
          "address": "0x2219caa3833b7e6f24c74fd59fb8261b78113214",
          "topics": [
            "0xab55084919f639a2fec08f706e428352e6240300cd9196650e65791827073720",
            "0x0000000000000000000000000000000000000000000000000000000000000002",
            "0x000000000000000000000000e6ffe14186c6ec0e7c39270dfb2281759ce75f70"
          ],
          "data": "0x",
          "blockHash": "0x8dc7541c52ecf1c07c084fb45c56d1b69f0353348834e11187122f96465f5ff9",
          "blockNumber": "0x32c9060",
          "transactionHash": "0x82c5ccbfa0fae57901f9f751ef6ff73c68c42deae812360ae2d4d5da1e5fa898",
          "transactionIndex": "0xd",
          "logIndex": "0x3e",
          "removed": false
        }
      ],
      "logsBloom": "0x04000000000000000000000000000000000000000000000000000000000000400000000000000000000000000000000000000000000000000000000000000000000000000000000000000000800000000200000020010000000000000000000000000000000000200000000000000000000000020000000000000000000040000000000000000000000100000000000000004000000000000000000000000000000000000000000000000100000000000000000000000000000000000000000000000000000000000000000000020000000000800000000200040080000000000000000000000000000000400000000000000000008000010000000000000000",
      "type": "0x2",
      "transactionHash": "0x82c5ccbfa0fae57901f9f751ef6ff73c68c42deae812360ae2d4d5da1e5fa898",
      "transactionIndex": "0xd",
      "blockHash": "0x8dc7541c52ecf1c07c084fb45c56d1b69f0353348834e11187122f96465f5ff9",
      "blockNumber": "0x32c9060",
      "gasUsed": "0x27fa1",
      "effectiveGasPrice": "0x5d22cfc3c",
      "from": "0xe6ffe14186c6ec0e7c39270dfb2281759ce75f70",
      "to": "0x2219caa3833b7e6f24c74fd59fb8261b78113214",
      "contractAddress": null,
      "l1BaseFeeScalar": "0x0",
      "l1BlobBaseFee": "0x14d4447",
      "l1BlobBaseFeeScalar": "0x0",
      "l1Fee": "0x0",
      "l1GasPrice": "0x140b4456",
      "l1GasUsed": "0x6a4"
    },
    {
      "status": "0x1",
      "cumulativeGasUsed": "0x2ae449",
      "logs": [
        {
          "address": "0xcf16785083dd67a16db0fc4eecfb2c349ad0e269",
          "topics": [
            "0xb79b7b154ffe48013fed56fafd7a5cd21aba59aec515ff7f4bc6bf30db1b293d",
            "0x0000000000000000000000000000000000000000000000000000000000000002"
          ],
          "data": "0x0000000000000000000000000000000000000000000000000000000000000000000000000000000000000000000000000000000000000000008e1bc9bf040000",
          "blockHash": "0x8dc7541c52ecf1c07c084fb45c56d1b69f0353348834e11187122f96465f5ff9",
          "blockNumber": "0x32c9060",
          "transactionHash": "0x3a27221c324e3205bce917f571f772f2d3658117d73b650c111cc3fb3e8b316c",
          "transactionIndex": "0x11",
          "logIndex": "0x51",
          "removed": false
        },
        {
          "address": "0x2219caa3833b7e6f24c74fd59fb8261b78113214",
          "topics": [
            "0x761f939497257d00446149a5137ed85ce054943dc7a356c104530249c6a94d20",
            "0x0000000000000000000000000000000000000000000000000000000000000002"
          ],
          "data": "0x00000000000000000000000000000000000000000000000000000000000000000000000000000000000000000000000000000000000000000000000000000040000000000000000000000000000000000000000000000000000000000000006063656c6f2d68756e743a2f2f68756e742f322f636c75652f302f746f6b656e2f33613331383036346533636136613966633562353666353030326161623866323862626538303739333435353131363564616132356436376465366135393838",
          "blockHash": "0x8dc7541c52ecf1c07c084fb45c56d1b69f0353348834e11187122f96465f5ff9",
          "blockNumber": "0x32c9060",
          "transactionHash": "0x3a27221c324e3205bce917f571f772f2d3658117d73b650c111cc3fb3e8b316c",
          "transactionIndex": "0x11",
          "logIndex": "0x52",
          "removed": false
        }
      ],
      "logsBloom": "0x04000400000000000000000000000000000000000000000000000000000000400000000000000000000000000000000000000000000000000000000000000000000000000010000000000000000000000200000000000000000000000000000000000000000000000000000000000000000000020000000000000000000040000000010008000000000000000000000000004000000000000000000000000000000000000000000000000100000000000000000000000000000000000000000000000800000000000000000000000000000000000000000000000000000000000000000000000000000000000000004000000000008000010000000000000000",
      "type": "0x2",
      "transactionHash": "0x3a27221c324e3205bce917f571f772f2d3658117d73b650c111cc3fb3e8b316c",
      "transactionIndex": "0x11",
      "blockHash": "0x8dc7541c52ecf1c07c084fb45c56d1b69f0353348834e11187122f96465f5ff9",
      "blockNumber": "0x32c9060",
      "gasUsed": "0x4cc81",
      "effectiveGasPrice": "0x5d22cfc3c",
      "from": "0xe6ffe14186c6ec0e7c39270dfb2281759ce75f70",
      "to": "0x2219caa3833b7e6f24c74fd59fb8261b78113214",
      "contractAddress": null,
      "l1BaseFeeScalar": "0x0",
      "l1BlobBaseFee": "0x14d4447",
      "l1BlobBaseFeeScalar": "0x0",
      "l1Fee": "0x0",
      "l1GasPrice": "0x140b4456",
      "l1GasUsed": "0x85e"
    },
    {
      "status": "0x1",
      "cumulativeGasUsed": "0x2f7e4c",
      "logs": [
        {
          "address": "0xcf16785083dd67a16db0fc4eecfb2c349ad0e269",
          "topics": [
            "0xb79b7b154ffe48013fed56fafd7a5cd21aba59aec515ff7f4bc6bf30db1b293d",
            "0x0000000000000000000000000000000000000000000000000000000000000002"
          ],
          "data": "0x0000000000000000000000000000000000000000000000000000000000000001000000000000000000000000000000000000000000000000006a94d74f430000",
          "blockHash": "0x8dc7541c52ecf1c07c084fb45c56d1b69f0353348834e11187122f96465f5ff9",
          "blockNumber": "0x32c9060",
          "transactionHash": "0x13e9a2a23ef961a23f1bf44f97692d627159a43dab61dde220ce4e14754af08b",
          "transactionIndex": "0x12",
          "logIndex": "0x53",
          "removed": false
        },
        {
          "address": "0x2219caa3833b7e6f24c74fd59fb8261b78113214",
          "topics": [
            "0x761f939497257d00446149a5137ed85ce054943dc7a356c104530249c6a94d20",
            "0x0000000000000000000000000000000000000000000000000000000000000002"
          ],
          "data": "0x00000000000000000000000000000000000000000000000000000000000000010000000000000000000000000000000000000000000000000000000000000040000000000000000000000000000000000000000000000000000000000000006063656c6f2d68756e743a2f2f68756e742f322f636c75652f312f746f6b656e2f65343766356639336231336537383039383264653337643734373932363631303032353138613630313439303430303434366363333166356666373732656366",
          "blockHash": "0x8dc7541c52ecf1c07c084fb45c56d1b69f0353348834e11187122f96465f5ff9",
          "blockNumber": "0x32c9060",
          "transactionHash": "0x13e9a2a23ef961a23f1bf44f97692d627159a43dab61dde220ce4e14754af08b",
          "transactionIndex": "0x12",
          "logIndex": "0x54",
          "removed": false
        }
      ],
      "logsBloom": "0x04000400000000000000000000000000000000000000000000000000000000400000000000000000000000000000000000000000000000000000000000000000000000000010000000000000000000000200000000000000000000000000000000000000000000000000000000000000000000020000000000000000000040000000010008000000000000000000000000004000000000000000000000000000000000000000000000000100000000000000000000000000000000000000000000000800000000000000000000000000000000000000000000000000000000000000000000000000000000000000004000000000008000010000000000000000",
      "type": "0x2",
      "transactionHash": "0x13e9a2a23ef961a23f1bf44f97692d627159a43dab61dde220ce4e14754af08b",
      "transactionIndex": "0x12",
      "blockHash": "0x8dc7541c52ecf1c07c084fb45c56d1b69f0353348834e11187122f96465f5ff9",
      "blockNumber": "0x32c9060",
      "gasUsed": "0x49a03",
      "effectiveGasPrice": "0x5d22cfc3c",
      "from": "0xe6ffe14186c6ec0e7c39270dfb2281759ce75f70",
      "to": "0x2219caa3833b7e6f24c74fd59fb8261b78113214",
      "contractAddress": null,
      "l1BaseFeeScalar": "0x0",
      "l1BlobBaseFee": "0x14d4447",
      "l1BlobBaseFeeScalar": "0x0",
      "l1Fee": "0x0",
      "l1GasPrice": "0x140b4456",
      "l1GasUsed": "0x85e"
    },
    {
      "status": "0x1",
      "cumulativeGasUsed": "0x3418df",
      "logs": [
        {
          "address": "0xcf16785083dd67a16db0fc4eecfb2c349ad0e269",
          "topics": [
            "0xb79b7b154ffe48013fed56fafd7a5cd21aba59aec515ff7f4bc6bf30db1b293d",
            "0x0000000000000000000000000000000000000000000000000000000000000002"
          ],
          "data": "0x0000000000000000000000000000000000000000000000000000000000000002000000000000000000000000000000000000000000000000006a94d74f430000",
          "blockHash": "0x8dc7541c52ecf1c07c084fb45c56d1b69f0353348834e11187122f96465f5ff9",
          "blockNumber": "0x32c9060",
          "transactionHash": "0xf1021f3133dcfd8890816017998ce70867dd37936e7dfbb8cf766abcb8ab171d",
          "transactionIndex": "0x13",
          "logIndex": "0x55",
          "removed": false
        },
        {
          "address": "0x2219caa3833b7e6f24c74fd59fb8261b78113214",
          "topics": [
            "0x761f939497257d00446149a5137ed85ce054943dc7a356c104530249c6a94d20",
            "0x0000000000000000000000000000000000000000000000000000000000000002"
          ],
          "data": "0x00000000000000000000000000000000000000000000000000000000000000020000000000000000000000000000000000000000000000000000000000000040000000000000000000000000000000000000000000000000000000000000006063656c6f2d68756e743a2f2f68756e742f322f636c75652f322f746f6b656e2f35656566336132653366343536626137346538623231316162326233303034626133306361356465363866383638303261646661646630396237313661323862",
          "blockHash": "0x8dc7541c52ecf1c07c084fb45c56d1b69f0353348834e11187122f96465f5ff9",
          "blockNumber": "0x32c9060",
          "transactionHash": "0xf1021f3133dcfd8890816017998ce70867dd37936e7dfbb8cf766abcb8ab171d",
          "transactionIndex": "0x13",
          "logIndex": "0x56",
          "removed": false
        }
      ],
      "logsBloom": "0x04000400000000000000000000000000000000000000000000000000000000400000000000000000000000000000000000000000000000000000000000000000000000000010000000000000000000000200000000000000000000000000000000000000000000000000000000000000000000020000000000000000000040000000010008000000000000000000000000004000000000000000000000000000000000000000000000000100000000000000000000000000000000000000000000000800000000000000000000000000000000000000000000000000000000000000000000000000000000000000004000000000008000010000000000000000",
      "type": "0x2",
      "transactionHash": "0xf1021f3133dcfd8890816017998ce70867dd37936e7dfbb8cf766abcb8ab171d",
      "transactionIndex": "0x13",
      "blockHash": "0x8dc7541c52ecf1c07c084fb45c56d1b69f0353348834e11187122f96465f5ff9",
      "blockNumber": "0x32c9060",
      "gasUsed": "0x49a93",
      "effectiveGasPrice": "0x5d22cfc3c",
      "from": "0xe6ffe14186c6ec0e7c39270dfb2281759ce75f70",
      "to": "0x2219caa3833b7e6f24c74fd59fb8261b78113214",
      "contractAddress": null,
      "l1BaseFeeScalar": "0x0",
      "l1BlobBaseFee": "0x14d4447",
      "l1BlobBaseFeeScalar": "0x0",
      "l1Fee": "0x0",
      "l1GasPrice": "0x140b4456",
      "l1GasUsed": "0x94f"
    },
    {
      "status": "0x1",
      "cumulativeGasUsed": "0x34e195",
      "logs": [
        {
          "address": "0x765de816845861e75a25fca122bb6898b8b1282a",
          "topics": [
            "0x8c5be1e5ebec7d5bd14f71427d1e84f3dd0314c0f7b2291e5b200ac8c7c3b925",
            "0x000000000000000000000000e6ffe14186c6ec0e7c39270dfb2281759ce75f70",
            "0x0000000000000000000000002219caa3833b7e6f24c74fd59fb8261b78113214"
          ],
          "data": "0x000000000000000000000000000000000000000000000000016345785d8a0000",
          "blockHash": "0x8dc7541c52ecf1c07c084fb45c56d1b69f0353348834e11187122f96465f5ff9",
          "blockNumber": "0x32c9060",
          "transactionHash": "0x2a7933cd5c631be7db96e32027c8f6377db83ddf5c397297908e7468aad305fe",
          "transactionIndex": "0x14",
          "logIndex": "0x57",
          "removed": false
        }
      ],
      "logsBloom": "0x00000000000000000000000000000000000000000000000000000000000000000000080000000000000000002000000000000000000000000000000000200000000000000000000000000000800000000000000000000000000000000000000000000000000000200000000000000000000000000000000000000000000000000000000000000000000100000000000000000000000000000000000000000000020000000000000000000000000000000000000000000000000000000000000000000000000000000000000000000000000800000000000200040080000000000010000000000000000000000000000000000000000000000000000000000000",
      "type": "0x2",
      "transactionHash": "0x2a7933cd5c631be7db96e32027c8f6377db83ddf5c397297908e7468aad305fe",
      "transactionIndex": "0x14",
      "blockHash": "0x8dc7541c52ecf1c07c084fb45c56d1b69f0353348834e11187122f96465f5ff9",
      "blockNumber": "0x32c9060",
      "gasUsed": "0xc8b6",
      "effectiveGasPrice": "0x5d22cfc3c",
      "from": "0xe6ffe14186c6ec0e7c39270dfb2281759ce75f70",
      "to": "0x765de816845861e75a25fca122bb6898b8b1282a",
      "contractAddress": null,
      "l1BaseFeeScalar": "0x0",
      "l1BlobBaseFee": "0x14d4447",
      "l1BlobBaseFeeScalar": "0x0",
      "l1Fee": "0x0",
      "l1GasPrice": "0x140b4456",
      "l1GasUsed": "0x640"
    },
    {
      "status": "0x1",
      "cumulativeGasUsed": "0x36c853",
      "logs": [
        {
          "address": "0x765de816845861e75a25fca122bb6898b8b1282a",
          "topics": [
            "0x8c5be1e5ebec7d5bd14f71427d1e84f3dd0314c0f7b2291e5b200ac8c7c3b925",
            "0x000000000000000000000000e6ffe14186c6ec0e7c39270dfb2281759ce75f70",
            "0x0000000000000000000000002219caa3833b7e6f24c74fd59fb8261b78113214"
          ],
          "data": "0x0000000000000000000000000000000000000000000000000000000000000000",
          "blockHash": "0x8dc7541c52ecf1c07c084fb45c56d1b69f0353348834e11187122f96465f5ff9",
          "blockNumber": "0x32c9060",
          "transactionHash": "0xd9ef981086491661b7750d56cdbbdb65b9fa140dc34818498f3356e1e030faeb",
          "transactionIndex": "0x15",
          "logIndex": "0x58",
          "removed": false
        },
        {
          "address": "0x765de816845861e75a25fca122bb6898b8b1282a",
          "topics": [
            "0xddf252ad1be2c89b69c2b068fc378daa952ba7f163c4a11628f55a4df523b3ef",
            "0x000000000000000000000000e6ffe14186c6ec0e7c39270dfb2281759ce75f70",
            "0x0000000000000000000000002219caa3833b7e6f24c74fd59fb8261b78113214"
          ],
          "data": "0x000000000000000000000000000000000000000000000000016345785d8a0000",
          "blockHash": "0x8dc7541c52ecf1c07c084fb45c56d1b69f0353348834e11187122f96465f5ff9",
          "blockNumber": "0x32c9060",
          "transactionHash": "0xd9ef981086491661b7750d56cdbbdb65b9fa140dc34818498f3356e1e030faeb",
          "transactionIndex": "0x15",
          "logIndex": "0x59",
          "removed": false
        },
        {
          "address": "0x765de816845861e75a25fca122bb6898b8b1282a",
          "topics": [
            "0x8c5be1e5ebec7d5bd14f71427d1e84f3dd0314c0f7b2291e5b200ac8c7c3b925",
            "0x0000000000000000000000002219caa3833b7e6f24c74fd59fb8261b78113214",
            "0x000000000000000000000000cf16785083dd67a16db0fc4eecfb2c349ad0e269"
          ],
          "data": "0x000000000000000000000000000000000000000000000000016345785d8a0000",
          "blockHash": "0x8dc7541c52ecf1c07c084fb45c56d1b69f0353348834e11187122f96465f5ff9",
          "blockNumber": "0x32c9060",
          "transactionHash": "0xd9ef981086491661b7750d56cdbbdb65b9fa140dc34818498f3356e1e030faeb",
          "transactionIndex": "0x15",
          "logIndex": "0x5a",
          "removed": false
        },
        {
          "address": "0x765de816845861e75a25fca122bb6898b8b1282a",
          "topics": [
            "0x8c5be1e5ebec7d5bd14f71427d1e84f3dd0314c0f7b2291e5b200ac8c7c3b925",
            "0x0000000000000000000000002219caa3833b7e6f24c74fd59fb8261b78113214",
            "0x000000000000000000000000cf16785083dd67a16db0fc4eecfb2c349ad0e269"
          ],
          "data": "0x0000000000000000000000000000000000000000000000000000000000000000",
          "blockHash": "0x8dc7541c52ecf1c07c084fb45c56d1b69f0353348834e11187122f96465f5ff9",
          "blockNumber": "0x32c9060",
          "transactionHash": "0xd9ef981086491661b7750d56cdbbdb65b9fa140dc34818498f3356e1e030faeb",
          "transactionIndex": "0x15",
          "logIndex": "0x5b",
          "removed": false
        },
        {
          "address": "0x765de816845861e75a25fca122bb6898b8b1282a",
          "topics": [
            "0xddf252ad1be2c89b69c2b068fc378daa952ba7f163c4a11628f55a4df523b3ef",
            "0x0000000000000000000000002219caa3833b7e6f24c74fd59fb8261b78113214",
            "0x000000000000000000000000cf16785083dd67a16db0fc4eecfb2c349ad0e269"
          ],
          "data": "0x000000000000000000000000000000000000000000000000016345785d8a0000",
          "blockHash": "0x8dc7541c52ecf1c07c084fb45c56d1b69f0353348834e11187122f96465f5ff9",
          "blockNumber": "0x32c9060",
          "transactionHash": "0xd9ef981086491661b7750d56cdbbdb65b9fa140dc34818498f3356e1e030faeb",
          "transactionIndex": "0x15",
          "logIndex": "0x5c",
          "removed": false
        },
        {
          "address": "0xcf16785083dd67a16db0fc4eecfb2c349ad0e269",
          "topics": [
            "0x78d546d8b8a7f40ab99e496db8532aa8c7110533a78cf8e810befeb1c92160d0",
            "0x0000000000000000000000000000000000000000000000000000000000000002",
            "0x0000000000000000000000002219caa3833b7e6f24c74fd59fb8261b78113214"
          ],
          "data": "0x000000000000000000000000000000000000000000000000016345785d8a0000",
          "blockHash": "0x8dc7541c52ecf1c07c084fb45c56d1b69f0353348834e11187122f96465f5ff9",
          "blockNumber": "0x32c9060",
          "transactionHash": "0xd9ef981086491661b7750d56cdbbdb65b9fa140dc34818498f3356e1e030faeb",
          "transactionIndex": "0x15",
          "logIndex": "0x5d",
          "removed": false
        },
        {
          "address": "0x2219caa3833b7e6f24c74fd59fb8261b78113214",
          "topics": [
            "0x15b254e6d59546e05673736768f3699e31af72c8dab1194ee701ae85f515b408",
            "0x0000000000000000000000000000000000000000000000000000000000000002"
          ],
          "data": "0x000000000000000000000000000000000000000000000000016345785d8a0000",
          "blockHash": "0x8dc7541c52ecf1c07c084fb45c56d1b69f0353348834e11187122f96465f5ff9",
          "blockNumber": "0x32c9060",
          "transactionHash": "0xd9ef981086491661b7750d56cdbbdb65b9fa140dc34818498f3356e1e030faeb",
          "transactionIndex": "0x15",
          "logIndex": "0x5e",
          "removed": false
        }
      ],
      "logsBloom": "0x04000100000000000000000000000000000000000000000000000000000000400000080000000000000000002000000000000000010000200000000000200000000002000000000000000008a00000000200000000000000000000000000000000000000000000200000000000400000000000020000000000000010000040000000000000000000000100000000000000004000000000000000000000000000020000000000000000000100000000000000000000000800000000000000000000000002000000000000000000000000000800000000000200040180000000000010000000000200000000000000000000000000008000010000000000000000",
      "type": "0x2",
      "transactionHash": "0xd9ef981086491661b7750d56cdbbdb65b9fa140dc34818498f3356e1e030faeb",
      "transactionIndex": "0x15",
      "blockHash": "0x8dc7541c52ecf1c07c084fb45c56d1b69f0353348834e11187122f96465f5ff9",
      "blockNumber": "0x32c9060",
      "gasUsed": "0x1e6be",
      "effectiveGasPrice": "0x5d22cfc3c",
      "from": "0xe6ffe14186c6ec0e7c39270dfb2281759ce75f70",
      "to": "0x2219caa3833b7e6f24c74fd59fb8261b78113214",
      "contractAddress": null,
      "l1BaseFeeScalar": "0x0",
      "l1BlobBaseFee": "0x14d4447",
      "l1BlobBaseFeeScalar": "0x0",
      "l1Fee": "0x0",
      "l1GasPrice": "0x140b4456",
      "l1GasUsed": "0x640"
    },
    {
      "status": "0x1",
      "cumulativeGasUsed": "0x2e221f",
      "logs": [
        {
          "address": "0x2219caa3833b7e6f24c74fd59fb8261b78113214",
          "topics": [
            "0xf3de52a7ca1a3a37721fcef7dae4c389c0fe6f3b746e223f73153a838b7d1caf",
            "0x0000000000000000000000000000000000000000000000000000000000000002"
          ],
          "data": "0x",
          "blockHash": "0xbdc91045e85237b4fb34df668c58c881bbe39e741b1a3a5d1e2141d59feba041",
          "blockNumber": "0x32c9061",
          "transactionHash": "0xcf63e862c8b0463e83a56e768d042781119ccd78324acb04b1818b7ad8ffc053",
          "transactionIndex": "0x12",
          "logIndex": "0x62",
          "removed": false
        }
      ],
      "logsBloom": "0x04000000000010000000000000000000000000000000000000000000000000400000000000000000000000000000000000000000000000000000000000000000000000000000000000000000000000000200000000000000000000000000000000000000000000000000000000000000000000000000000000000000000040000000000000000000000000000000000000000000000000000000000000000000000000000000000002000100000000000000000000000000000000000000000000000000000000000000000000000000000000000000000000000000000000000000000000000000000000000000000000000000008000000100000000000000",
      "type": "0x2",
      "transactionHash": "0xcf63e862c8b0463e83a56e768d042781119ccd78324acb04b1818b7ad8ffc053",
      "transactionIndex": "0x12",
      "blockHash": "0xbdc91045e85237b4fb34df668c58c881bbe39e741b1a3a5d1e2141d59feba041",
      "blockNumber": "0x32c9061",
      "gasUsed": "0x6af3",
      "effectiveGasPrice": "0x5d22cfc3c",
      "from": "0xe6ffe14186c6ec0e7c39270dfb2281759ce75f70",
      "to": "0x2219caa3833b7e6f24c74fd59fb8261b78113214",
      "contractAddress": null,
      "l1BaseFeeScalar": "0x0",
      "l1BlobBaseFee": "0x14d4447",
      "l1BlobBaseFeeScalar": "0x0",
      "l1Fee": "0x0",
      "l1GasPrice": "0x140b4456",
      "l1GasUsed": "0x640"
    }
  ],
  "libraries": [],
  "pending": [],
  "returns": {},
  "timestamp": 1765152952240,
  "chain": 42220,
  "commit": "4fb1cfd"
}