{
  "transactions": [
    {
      "hash": "0xe3cb839cd9471a2910ac07a21da568d61d5a3cd0896306059b9dc64c75321e88",
      "transactionType": "CALL",
      "contractName": null,
      "contractAddress": "0x037dd169f5978d0d6853ab824c9f029480520190",
      "function": "registerCreator()",
      "arguments": [],
      "transaction": {
        "from": "0xe6ffe14186c6ec0e7c39270dfb2281759ce75f70",
        "to": "0x037dd169f5978d0d6853ab824c9f029480520190",
        "gas": "0xff09",
        "value": "0x0",
        "input": "0x0c6c8fe8",
        "nonce": "0x6d",
        "chainId": "0xa4ec"
      },
      "additionalContracts": [],
      "isFixedGasLimit": false
    },
    {
      "hash": "0x0f42e6c98dc2b7aa3c8b256e3e4dc7642d71d1bc31059296e4345c4a4e8f439f",
      "transactionType": "CALL",
      "contractName": null,
      "contractAddress": "0x037dd169f5978d0d6853ab824c9f029480520190",
      "function": "createHunt(string,string)",
      "arguments": [
        "Demo Hunt",
        "A demo treasure hunt"
      ],
      "transaction": {
        "from": "0xe6ffe14186c6ec0e7c39270dfb2281759ce75f70",
        "to": "0x037dd169f5978d0d6853ab824c9f029480520190",
        "gas": "0x3cfa1",
        "value": "0x0",
        "input": "0xb3dad62800000000000000000000000000000000000000000000000000000000000000400000000000000000000000000000000000000000000000000000000000000080000000000000000000000000000000000000000000000000000000000000000944656d6f2048756e7400000000000000000000000000000000000000000000000000000000000000000000000000000000000000000000000000000000000014412064656d6f2074726561737572652068756e74000000000000000000000000",
        "nonce": "0x6e",
        "chainId": "0xa4ec"
      },
      "additionalContracts": [],
      "isFixedGasLimit": false
    },
    {
      "hash": "0x3e5ddf40121a0273cb38e9ae28c29c51fdaf54d630367599055c0a19348fb5eb",
      "transactionType": "CALL",
      "contractName": null,
      "contractAddress": "0x037dd169f5978d0d6853ab824c9f029480520190",
      "function": "addClue(uint256,string,string,uint256,string)",
      "arguments": [
        "0",
        "Find the statue at the town square",
        "statue",
        "40000000000000000",
        "Town Square"
      ],
      "transaction": {
        "from": "0xe6ffe14186c6ec0e7c39270dfb2281759ce75f70",
        "to": "0x037dd169f5978d0d6853ab824c9f029480520190",
        "gas": "0x5af58",
        "value": "0x0",
        "input": "0xfa7ae99a000000000000000000000000000000000000000000000000000000000000000000000000000000000000000000000000000000000000000000000000000000a00000000000000000000000000000000000000000000000000000000000000100000000000000000000000000000000000000000000000000008e1bc9bf0400000000000000000000000000000000000000000000000000000000000000000140000000000000000000000000000000000000000000000000000000000000002246696e6420746865207374617475652061742074686520746f776e2073717561726500000000000000000000000000000000000000000000000000000000000000000000000000000000000000000000000000000000000000000000000000067374617475650000000000000000000000000000000000000000000000000000000000000000000000000000000000000000000000000000000000000000000b546f776e20537175617265000000000000000000000000000000000000000000",
        "nonce": "0x6f",
        "chainId": "0xa4ec"
      },
      "additionalContracts": [],
      "isFixedGasLimit": false
    },
    {
      "hash": "0x47945f51d43b1b7d01e941ddbc1403259535e0b8ab633be853071899e5ff0f31",
      "transactionType": "CALL",
      "contractName": null,
      "contractAddress": "0x037dd169f5978d0d6853ab824c9f029480520190",
      "function": "addClue(uint256,string,string,uint256,string)",
      "arguments": [
        "0",
        "Follow the river to the old bridge",
        "bridge",
        "30000000000000000",
        "Old Bridge"
      ],
      "transaction": {
        "from": "0xe6ffe14186c6ec0e7c39270dfb2281759ce75f70",
        "to": "0x037dd169f5978d0d6853ab824c9f029480520190",
        "gas": "0x5621f",
        "value": "0x0",
        "input": "0xfa7ae99a000000000000000000000000000000000000000000000000000000000000000000000000000000000000000000000000000000000000000000000000000000a00000000000000000000000000000000000000000000000000000000000000100000000000000000000000000000000000000000000000000006a94d74f43000000000000000000000000000000000000000000000000000000000000000001400000000000000000000000000000000000000000000000000000000000000022466f6c6c6f772074686520726976657220746f20746865206f6c642062726964676500000000000000000000000000000000000000000000000000000000000000000000000000000000000000000000000000000000000000000000000000066272696467650000000000000000000000000000000000000000000000000000000000000000000000000000000000000000000000000000000000000000000a4f6c642042726964676500000000000000000000000000000000000000000000",
        "nonce": "0x70",
        "chainId": "0xa4ec"
      },
      "additionalContracts": [],
      "isFixedGasLimit": false
    },
    {
      "hash": "0xb9976d6a0d60fc0d0f93661cff32d7d7cd220494927d69941e54eff4bcff5f2b",
      "transactionType": "CALL",
      "contractName": null,
      "contractAddress": "0x037dd169f5978d0d6853ab824c9f029480520190",
      "function": "addClue(uint256,string,string,uint256,string)",
      "arguments": [
        "0",
        "The treasure is buried under the old oak tree",
        "oak",
        "30000000000000000",
        "Ancient Oak"
      ],
      "transaction": {
        "from": "0xe6ffe14186c6ec0e7c39270dfb2281759ce75f70",
        "to": "0x037dd169f5978d0d6853ab824c9f029480520190",
        "gas": "0x5b3cf",
        "value": "0x0",
        "input": "0xfa7ae99a000000000000000000000000000000000000000000000000000000000000000000000000000000000000000000000000000000000000000000000000000000a00000000000000000000000000000000000000000000000000000000000000100000000000000000000000000000000000000000000000000006a94d74f4300000000000000000000000000000000000000000000000000000000000000000140000000000000000000000000000000000000000000000000000000000000002d5468652074726561737572652069732062757269656420756e64657220746865206f6c64206f616b20747265650000000000000000000000000000000000000000000000000000000000000000000000000000000000000000000000000000036f616b0000000000000000000000000000000000000000000000000000000000000000000000000000000000000000000000000000000000000000000000000b416e6369656e74204f616b000000000000000000000000000000000000000000",
        "nonce": "0x71",
        "chainId": "0xa4ec"
      },
      "additionalContracts": [],
      "isFixedGasLimit": false
    },
    {
      "hash": "0x498fba6c22d5c2808c0a27b101efda2b3d36a4ddad4d2bc04f4b5bb6dd4c3acc",
      "transactionType": "CALL",
      "contractName": null,
      "contractAddress": "0x765de816845861e75a25fca122bb6898b8b1282a",
      "function": "approve(address,uint256)",
      "arguments": [
        "0x037dd169F5978d0d6853Ab824c9f029480520190",
        "100000000000000000"
      ],
      "transaction": {
        "from": "0xe6ffe14186c6ec0e7c39270dfb2281759ce75f70",
        "to": "0x765de816845861e75a25fca122bb6898b8b1282a",
        "gas": "0x1153a",
        "value": "0x0",
        "input": "0x095ea7b3000000000000000000000000037dd169f5978d0d6853ab824c9f029480520190000000000000000000000000000000000000000000000000016345785d8a0000",
        "nonce": "0x72",
        "chainId": "0xa4ec"
      },
      "additionalContracts": [],
      "isFixedGasLimit": false
    },
    {
      "hash": "0xd43b30b13e30ddd59c41cc09814e8afbbba1ae12c8e2887c141598ddc968a9c1",
      "transactionType": "CALL",
      "contractName": null,
      "contractAddress": "0x037dd169f5978d0d6853ab824c9f029480520190",
      "function": "fundHunt(uint256,uint256)",
      "arguments": [
        "0",
        "100000000000000000"
      ],
      "transaction": {
        "from": "0xe6ffe14186c6ec0e7c39270dfb2281759ce75f70",
        "to": "0x037dd169f5978d0d6853ab824c9f029480520190",
        "gas": "0x315db",
        "value": "0x0",
        "input": "0x13d5f5c70000000000000000000000000000000000000000000000000000000000000000000000000000000000000000000000000000000000000000016345785d8a0000",
        "nonce": "0x73",
        "chainId": "0xa4ec"
      },
      "additionalContracts": [],
      "isFixedGasLimit": false
    },
    {
      "hash": "0x33bb921ac1be650a6e225441c227dcc55da4737ab039cc5c01943b015fe0da78",
      "transactionType": "CALL",
      "contractName": null,
      "contractAddress": "0x037dd169f5978d0d6853ab824c9f029480520190",
      "function": "publishHunt(uint256)",
      "arguments": [
        "0"
      ],
      "transaction": {
        "from": "0xe6ffe14186c6ec0e7c39270dfb2281759ce75f70",
        "to": "0x037dd169f5978d0d6853ab824c9f029480520190",
        "gas": "0x9c37",
        "value": "0x0",
        "input": "0x5640b4e90000000000000000000000000000000000000000000000000000000000000000",
        "nonce": "0x74",
        "chainId": "0xa4ec"
      },
      "additionalContracts": [],
      "isFixedGasLimit": false
    }
  ],
  "receipts": [
    {
      "status": "0x1",
      "cumulativeGasUsed": "0x1a2b39",
      "logs": [
        {
          "address": "0x037dd169f5978d0d6853ab824c9f029480520190",
          "topics": [
            "0x177b4e655e9aaf45f5db25b396dfba96e0152f6adcf5d9a3e7d07276431d42e7",
            "0x000000000000000000000000e6ffe14186c6ec0e7c39270dfb2281759ce75f70"
          ],
          "data": "0x",
          "blockHash": "0x14d431a443428c9bd408b90eb990339156deef6501eadb4e7918c117a3fa0835",
          "blockNumber": "0x32d5847",
          "transactionHash": "0x33bb921ac1be650a6e225441c227dcc55da4737ab039cc5c01943b015fe0da78",
          "transactionIndex": "0xf",
          "logIndex": "0x2c",
          "removed": false
        }
      ],
      "logsBloom": "0x00000000000000000000000000000000000000000000000000000000000000000000000000000000000000000000000000040000000000000000000000000000000000000002000000000000800000000000000000000000000000000000000000000000000000000000000000000000000000000000000000000000000000000000000000002000000000000000000000000004000000000000000000000000000000000000000000000000000000000000000000000000000000000000000000000000000000400000000000000000000000000000000000040080000000000000000000000000000004000000000000000000000000000000000000000000",
      "type": "0x2",
      "transactionHash": "0x33bb921ac1be650a6e225441c227dcc55da4737ab039cc5c01943b015fe0da78",
      "transactionIndex": "0xf",
      "blockHash": "0x14d431a443428c9bd408b90eb990339156deef6501eadb4e7918c117a3fa0835",
      "blockNumber": "0x32d5847",
      "gasUsed": "0xae63",
      "effectiveGasPrice": "0x5d22dbf8c",
      "from": "0xe6ffe14186c6ec0e7c39270dfb2281759ce75f70",
      "to": "0x037dd169f5978d0d6853ab824c9f029480520190",
      "contractAddress": null,
      "l1BaseFeeScalar": "0x0",
      "l1BlobBaseFee": "0x1974afb",
      "l1BlobBaseFeeScalar": "0x0",
      "l1Fee": "0x0",
      "l1GasPrice": "0x15be19ba",
      "l1GasUsed": "0x640"
    },
    {
      "status": "0x1",
      "cumulativeGasUsed": "0x1ced90",
      "logs": [
        {
          "address": "0x6c1afc2d523e6dbbe7d9867c9d20f1d1c0f43994",
          "topics": [
            "0x4e13863bf5967e521c15e9e153e633a8fbd4401dd853de4571ca60c9fd9008c6",
            "0x0000000000000000000000000000000000000000000000000000000000000000",
            "0x000000000000000000000000037dd169f5978d0d6853ab824c9f029480520190"
          ],
          "data": "0x000000000000000000000000000000000000000000000000000000000000006000000000000000000000000000000000000000000000000000000000000000000000000000000000000000000000000000000000000000000000000000000000000000000000000000000000000000000000000000000000000000000000000944656d6f2048756e740000000000000000000000000000000000000000000000",
          "blockHash": "0x14d431a443428c9bd408b90eb990339156deef6501eadb4e7918c117a3fa0835",
          "blockNumber": "0x32d5847",
          "transactionHash": "0x47945f51d43b1b7d01e941ddbc1403259535e0b8ab633be853071899e5ff0f31",
          "transactionIndex": "0x10",
          "logIndex": "0x2d",
          "removed": false
        },
        {
          "address": "0x037dd169f5978d0d6853ab824c9f029480520190",
          "topics": [
            "0xab55084919f639a2fec08f706e428352e6240300cd9196650e65791827073720",
            "0x0000000000000000000000000000000000000000000000000000000000000000",
            "0x000000000000000000000000e6ffe14186c6ec0e7c39270dfb2281759ce75f70"
          ],
          "data": "0x",
          "blockHash": "0x14d431a443428c9bd408b90eb990339156deef6501eadb4e7918c117a3fa0835",
          "blockNumber": "0x32d5847",
          "transactionHash": "0x47945f51d43b1b7d01e941ddbc1403259535e0b8ab633be853071899e5ff0f31",
          "transactionIndex": "0x10",
          "logIndex": "0x2e",
          "removed": false
        }
      ],
      "logsBloom": "0x00000000000000000000000000000000000000000000000000001000000000000000000000000000000000000000000000040000000000000000000000000000100000001000000000000000800000000000000020010000080000000000000000000000020000000000000000000800000000000000000000000000000000000000000000002000000000000000000000000004000000000000000000004000000000000000000000000000000000000000000000000000000000000000000000000000000000000000000000020000000000800000000000040080000020000000000000000000000000400004000000000000008000000000000000000000",
      "type": "0x2",
      "transactionHash": "0x47945f51d43b1b7d01e941ddbc1403259535e0b8ab633be853071899e5ff0f31",
      "transactionIndex": "0x10",
      "blockHash": "0x14d431a443428c9bd408b90eb990339156deef6501eadb4e7918c117a3fa0835",
      "blockNumber": "0x32d5847",
      "gasUsed": "0x2c257",
      "effectiveGasPrice": "0x5d22dbf8c",
      "from": "0xe6ffe14186c6ec0e7c39270dfb2281759ce75f70",
      "to": "0x037dd169f5978d0d6853ab824c9f029480520190",
      "contractAddress": null,
      "l1BaseFeeScalar": "0x0",
      "l1BlobBaseFee": "0x1974afb",
      "l1BlobBaseFeeScalar": "0x0",
      "l1Fee": "0x0",
      "l1GasPrice": "0x15be19ba",
      "l1GasUsed": "0x6a4"
    },
    {
      "status": "0x1",
      "cumulativeGasUsed": "0x210b35",
      "logs": [
        {
          "address": "0x6c1afc2d523e6dbbe7d9867c9d20f1d1c0f43994",
          "topics": [
            "0xb79b7b154ffe48013fed56fafd7a5cd21aba59aec515ff7f4bc6bf30db1b293d",
            "0x0000000000000000000000000000000000000000000000000000000000000000"
          ],
          "data": "0x0000000000000000000000000000000000000000000000000000000000000000000000000000000000000000000000000000000000000000008e1bc9bf040000",
          "blockHash": "0x14d431a443428c9bd408b90eb990339156deef6501eadb4e7918c117a3fa0835",
          "blockNumber": "0x32d5847",
          "transactionHash": "0x0f42e6c98dc2b7aa3c8b256e3e4dc7642d71d1bc31059296e4345c4a4e8f439f",
          "transactionIndex": "0x11",
          "logIndex": "0x2f",
          "removed": false
        },
        {
          "address": "0x037dd169f5978d0d6853ab824c9f029480520190",
          "topics": [
            "0x4324ed8d50a0840800744e1e3693a68674f5106f89d03e665b0ffd9ba7623397",
            "0x0000000000000000000000000000000000000000000000000000000000000000"
          ],
          "data": "0x0000000000000000000000000000000000000000000000000000000000000000",
          "blockHash": "0x14d431a443428c9bd408b90eb990339156deef6501eadb4e7918c117a3fa0835",
          "blockNumber": "0x32d5847",
          "transactionHash": "0x0f42e6c98dc2b7aa3c8b256e3e4dc7642d71d1bc31059296e4345c4a4e8f439f",
          "transactionIndex": "0x11",
          "logIndex": "0x30",
          "removed": false
        }
      ],
      "logsBloom": "0x04000000000000000000000000000000000000000000000000001000000000000000000000000000000000000000000000040000000000000000000400000000000000000000000000000000000000000000000000000000080000000000000000000000020000000000000000000800000000000000000000000000000000004000000008002000000000000000000000000004000000000000000000000000000000000000000000000000000000000000000000000000000000000000000000000800000000000000000000000000000000000000000000000000000020000000000000000000000000000004004000000000000000000000000000000000",
      "type": "0x2",
      "transactionHash": "0x0f42e6c98dc2b7aa3c8b256e3e4dc7642d71d1bc31059296e4345c4a4e8f439f",
      "transactionIndex": "0x11",
      "blockHash": "0x14d431a443428c9bd408b90eb990339156deef6501eadb4e7918c117a3fa0835",
      "blockNumber": "0x32d5847",
      "gasUsed": "0x41da5",
      "effectiveGasPrice": "0x5d22dbf8c",
      "from": "0xe6ffe14186c6ec0e7c39270dfb2281759ce75f70",
      "to": "0x037dd169f5978d0d6853ab824c9f029480520190",
      "contractAddress": null,
      "l1BaseFeeScalar": "0x0",
      "l1BlobBaseFee": "0x1974afb",
      "l1BlobBaseFeeScalar": "0x0",
      "l1Fee": "0x0",
      "l1GasPrice": "0x15be19ba",
      "l1GasUsed": "0x8ae"
    },
    {
      "status": "0x1",
      "cumulativeGasUsed": "0x2ac2ef",
      "logs": [
        {
          "address": "0x6c1afc2d523e6dbbe7d9867c9d20f1d1c0f43994",
          "topics": [
            "0xb79b7b154ffe48013fed56fafd7a5cd21aba59aec515ff7f4bc6bf30db1b293d",
            "0x0000000000000000000000000000000000000000000000000000000000000000"
          ],
          "data": "0x0000000000000000000000000000000000000000000000000000000000000001000000000000000000000000000000000000000000000000006a94d74f430000",
          "blockHash": "0x6e03a3fe4ec193e51228370355ff86623818e9993c0952fc9b6dfe3ff970d0aa",
          "blockNumber": "0x32d5848",
          "transactionHash": "0xb9976d6a0d60fc0d0f93661cff32d7d7cd220494927d69941e54eff4bcff5f2b",
          "transactionIndex": "0x13",
          "logIndex": "0x46",
          "removed": false
        },
        {
          "address": "0x037dd169f5978d0d6853ab824c9f029480520190",
          "topics": [
            "0x4324ed8d50a0840800744e1e3693a68674f5106f89d03e665b0ffd9ba7623397",
            "0x0000000000000000000000000000000000000000000000000000000000000000"
          ],
          "data": "0x0000000000000000000000000000000000000000000000000000000000000001",
          "blockHash": "0x6e03a3fe4ec193e51228370355ff86623818e9993c0952fc9b6dfe3ff970d0aa",
          "blockNumber": "0x32d5848",
          "transactionHash": "0xb9976d6a0d60fc0d0f93661cff32d7d7cd220494927d69941e54eff4bcff5f2b",
          "transactionIndex": "0x13",
          "logIndex": "0x47",
          "removed": false
        }
      ],
      "logsBloom": "0x04000000000000000000000000000000000000000000000000001000000000000000000000000000000000000000000000040000000000000000000400000000000000000000000000000000000000000000000000000000080000000000000000000000020000000000000000000800000000000000000000000000000000004000000008002000000000000000000000000004000000000000000000000000000000000000000000000000000000000000000000000000000000000000000000000800000000000000000000000000000000000000000000000000000020000000000000000000000000000004004000000000000000000000000000000000",
      "type": "0x2",
      "transactionHash": "0xb9976d6a0d60fc0d0f93661cff32d7d7cd220494927d69941e54eff4bcff5f2b",
      "transactionIndex": "0x13",
      "blockHash": "0x6e03a3fe4ec193e51228370355ff86623818e9993c0952fc9b6dfe3ff970d0aa",
      "blockNumber": "0x32d5848",
      "gasUsed": "0x3e5bd",
      "effectiveGasPrice": "0x5d22dbf8c",
      "from": "0xe6ffe14186c6ec0e7c39270dfb2281759ce75f70",
      "to": "0x037dd169f5978d0d6853ab824c9f029480520190",
      "contractAddress": null,
      "l1BaseFeeScalar": "0x0",
      "l1BlobBaseFee": "0x1974afb",
      "l1BlobBaseFeeScalar": "0x0",
      "l1Fee": "0x0",
      "l1GasPrice": "0x15be19ba",
      "l1GasUsed": "0x86c"
    },
    {
      "status": "0x1",
      "cumulativeGasUsed": "0x2ea918",
      "logs": [
        {
          "address": "0x6c1afc2d523e6dbbe7d9867c9d20f1d1c0f43994",
          "topics": [
            "0xb79b7b154ffe48013fed56fafd7a5cd21aba59aec515ff7f4bc6bf30db1b293d",
            "0x0000000000000000000000000000000000000000000000000000000000000000"
          ],
          "data": "0x0000000000000000000000000000000000000000000000000000000000000002000000000000000000000000000000000000000000000000006a94d74f430000",
          "blockHash": "0x6e03a3fe4ec193e51228370355ff86623818e9993c0952fc9b6dfe3ff970d0aa",
          "blockNumber": "0x32d5848",
          "transactionHash": "0x3e5ddf40121a0273cb38e9ae28c29c51fdaf54d630367599055c0a19348fb5eb",
          "transactionIndex": "0x14",
          "logIndex": "0x48",
          "removed": false
        },
        {
          "address": "0x037dd169f5978d0d6853ab824c9f029480520190",
          "topics": [
            "0x4324ed8d50a0840800744e1e3693a68674f5106f89d03e665b0ffd9ba7623397",
            "0x0000000000000000000000000000000000000000000000000000000000000000"
          ],
          "data": "0x0000000000000000000000000000000000000000000000000000000000000002",
          "blockHash": "0x6e03a3fe4ec193e51228370355ff86623818e9993c0952fc9b6dfe3ff970d0aa",
          "blockNumber": "0x32d5848",
          "transactionHash": "0x3e5ddf40121a0273cb38e9ae28c29c51fdaf54d630367599055c0a19348fb5eb",
          "transactionIndex": "0x14",
          "logIndex": "0x49",
          "removed": false
        }
      ],
      "logsBloom": "0x04000000000000000000000000000000000000000000000000001000000000000000000000000000000000000000000000040000000000000000000400000000000000000000000000000000000000000000000000000000080000000000000000000000020000000000000000000800000000000000000000000000000000004000000008002000000000000000000000000004000000000000000000000000000000000000000000000000000000000000000000000000000000000000000000000800000000000000000000000000000000000000000000000000000020000000000000000000000000000004004000000000000000000000000000000000",
      "type": "0x2",
      "transactionHash": "0x3e5ddf40121a0273cb38e9ae28c29c51fdaf54d630367599055c0a19348fb5eb",
      "transactionIndex": "0x14",
      "blockHash": "0x6e03a3fe4ec193e51228370355ff86623818e9993c0952fc9b6dfe3ff970d0aa",
      "blockNumber": "0x32d5848",
      "gasUsed": "0x3e629",
      "effectiveGasPrice": "0x5d22dbf8c",
      "from": "0xe6ffe14186c6ec0e7c39270dfb2281759ce75f70",
      "to": "0x037dd169f5978d0d6853ab824c9f029480520190",
      "contractAddress": null,
      "l1BaseFeeScalar": "0x0",
      "l1BlobBaseFee": "0x1974afb",
      "l1BlobBaseFeeScalar": "0x0",
      "l1Fee": "0x0",
      "l1GasPrice": "0x15be19ba",
      "l1GasUsed": "0x985"
    },
    {
      "status": "0x1",
      "cumulativeGasUsed": "0x2f71ce",
      "logs": [
        {
          "address": "0x765de816845861e75a25fca122bb6898b8b1282a",
          "topics": [
            "0x8c5be1e5ebec7d5bd14f71427d1e84f3dd0314c0f7b2291e5b200ac8c7c3b925",
            "0x000000000000000000000000e6ffe14186c6ec0e7c39270dfb2281759ce75f70",
            "0x000000000000000000000000037dd169f5978d0d6853ab824c9f029480520190"
          ],
          "data": "0x000000000000000000000000000000000000000000000000016345785d8a0000",
          "blockHash": "0x6e03a3fe4ec193e51228370355ff86623818e9993c0952fc9b6dfe3ff970d0aa",
          "blockNumber": "0x32d5848",
          "transactionHash": "0xd43b30b13e30ddd59c41cc09814e8afbbba1ae12c8e2887c141598ddc968a9c1",
          "transactionIndex": "0x15",
          "logIndex": "0x4a",
          "removed": false
        }
      ],
      "logsBloom": "0x00000000000000000000000000000000000000000000000000000000000000000000080000000000000000002000000000000000000000000000000000200000100000001000000000000000800000000000000000000000000000000000000000000000000000000000000000000000000000000000000000000000000000000000000000000000000000000000000000000000000000000000000000004000020000000000000000000000000000000000000000000000000000000000000000000000000000000000000000000000000800000000000000040080000000000010000000000000000000000000000000000000000000000000000000000000",
      "type": "0x2",
      "transactionHash": "0xd43b30b13e30ddd59c41cc09814e8afbbba1ae12c8e2887c141598ddc968a9c1",
      "transactionIndex": "0x15",
      "blockHash": "0x6e03a3fe4ec193e51228370355ff86623818e9993c0952fc9b6dfe3ff970d0aa",
      "blockNumber": "0x32d5848",
      "gasUsed": "0xc8b6",
      "effectiveGasPrice": "0x5d22dbf8c",
      "from": "0xe6ffe14186c6ec0e7c39270dfb2281759ce75f70",
      "to": "0x765de816845861e75a25fca122bb6898b8b1282a",
      "contractAddress": null,
      "l1BaseFeeScalar": "0x0",
      "l1BlobBaseFee": "0x1974afb",
      "l1BlobBaseFeeScalar": "0x0",
      "l1Fee": "0x0",
      "l1GasPrice": "0x15be19ba",
      "l1GasUsed": "0x640"
    },
    {
      "status": "0x1",
      "cumulativeGasUsed": "0x318de1",
      "logs": [
        {
          "address": "0x765de816845861e75a25fca122bb6898b8b1282a",
          "topics": [
            "0x8c5be1e5ebec7d5bd14f71427d1e84f3dd0314c0f7b2291e5b200ac8c7c3b925",
            "0x000000000000000000000000e6ffe14186c6ec0e7c39270dfb2281759ce75f70",
            "0x000000000000000000000000037dd169f5978d0d6853ab824c9f029480520190"
          ],
          "data": "0x0000000000000000000000000000000000000000000000000000000000000000",
          "blockHash": "0x6e03a3fe4ec193e51228370355ff86623818e9993c0952fc9b6dfe3ff970d0aa",
          "blockNumber": "0x32d5848",
          "transactionHash": "0xe3cb839cd9471a2910ac07a21da568d61d5a3cd0896306059b9dc64c75321e88",
          "transactionIndex": "0x16",
          "logIndex": "0x4b",
          "removed": false
        },
        {
          "address": "0x765de816845861e75a25fca122bb6898b8b1282a",
          "topics": [
            "0xddf252ad1be2c89b69c2b068fc378daa952ba7f163c4a11628f55a4df523b3ef",
            "0x000000000000000000000000e6ffe14186c6ec0e7c39270dfb2281759ce75f70",
            "0x000000000000000000000000037dd169f5978d0d6853ab824c9f029480520190"
          ],
          "data": "0x000000000000000000000000000000000000000000000000016345785d8a0000",
          "blockHash": "0x6e03a3fe4ec193e51228370355ff86623818e9993c0952fc9b6dfe3ff970d0aa",
          "blockNumber": "0x32d5848",
          "transactionHash": "0xe3cb839cd9471a2910ac07a21da568d61d5a3cd0896306059b9dc64c75321e88",
          "transactionIndex": "0x16",
          "logIndex": "0x4c",
          "removed": false
        },
        {
          "address": "0x765de816845861e75a25fca122bb6898b8b1282a",
          "topics": [
            "0x8c5be1e5ebec7d5bd14f71427d1e84f3dd0314c0f7b2291e5b200ac8c7c3b925",
            "0x000000000000000000000000037dd169f5978d0d6853ab824c9f029480520190",
            "0x0000000000000000000000006c1afc2d523e6dbbe7d9867c9d20f1d1c0f43994"
          ],
          "data": "0x000000000000000000000000000000000000000000000000016345785d8a0000",
          "blockHash": "0x6e03a3fe4ec193e51228370355ff86623818e9993c0952fc9b6dfe3ff970d0aa",
          "blockNumber": "0x32d5848",
          "transactionHash": "0xe3cb839cd9471a2910ac07a21da568d61d5a3cd0896306059b9dc64c75321e88",
          "transactionIndex": "0x16",
          "logIndex": "0x4d",
          "removed": false
        },
        {
          "address": "0x765de816845861e75a25fca122bb6898b8b1282a",
          "topics": [
            "0x8c5be1e5ebec7d5bd14f71427d1e84f3dd0314c0f7b2291e5b200ac8c7c3b925",
            "0x000000000000000000000000037dd169f5978d0d6853ab824c9f029480520190",
            "0x0000000000000000000000006c1afc2d523e6dbbe7d9867c9d20f1d1c0f43994"
          ],
          "data": "0x0000000000000000000000000000000000000000000000000000000000000000",
          "blockHash": "0x6e03a3fe4ec193e51228370355ff86623818e9993c0952fc9b6dfe3ff970d0aa",
          "blockNumber": "0x32d5848",
          "transactionHash": "0xe3cb839cd9471a2910ac07a21da568d61d5a3cd0896306059b9dc64c75321e88",
          "transactionIndex": "0x16",
          "logIndex": "0x4e",
          "removed": false
        },
        {
          "address": "0x765de816845861e75a25fca122bb6898b8b1282a",
          "topics": [
            "0xddf252ad1be2c89b69c2b068fc378daa952ba7f163c4a11628f55a4df523b3ef",
            "0x000000000000000000000000037dd169f5978d0d6853ab824c9f029480520190",
            "0x0000000000000000000000006c1afc2d523e6dbbe7d9867c9d20f1d1c0f43994"
          ],
          "data": "0x000000000000000000000000000000000000000000000000016345785d8a0000",
          "blockHash": "0x6e03a3fe4ec193e51228370355ff86623818e9993c0952fc9b6dfe3ff970d0aa",
          "blockNumber": "0x32d5848",
          "transactionHash": "0xe3cb839cd9471a2910ac07a21da568d61d5a3cd0896306059b9dc64c75321e88",
          "transactionIndex": "0x16",
          "logIndex": "0x4f",
          "removed": false
        },
        {
          "address": "0x6c1afc2d523e6dbbe7d9867c9d20f1d1c0f43994",
          "topics": [
            "0x78d546d8b8a7f40ab99e496db8532aa8c7110533a78cf8e810befeb1c92160d0",
            "0x0000000000000000000000000000000000000000000000000000000000000000",
            "0x000000000000000000000000037dd169f5978d0d6853ab824c9f029480520190"
          ],
          "data": "0x000000000000000000000000000000000000000000000000016345785d8a0000",
          "blockHash": "0x6e03a3fe4ec193e51228370355ff86623818e9993c0952fc9b6dfe3ff970d0aa",
          "blockNumber": "0x32d5848",
          "transactionHash": "0xe3cb839cd9471a2910ac07a21da568d61d5a3cd0896306059b9dc64c75321e88",
          "transactionIndex": "0x16",
          "logIndex": "0x50",
          "removed": false
        },
        {
          "address": "0x037dd169f5978d0d6853ab824c9f029480520190",
          "topics": [
            "0x15b254e6d59546e05673736768f3699e31af72c8dab1194ee701ae85f515b408",
            "0x0000000000000000000000000000000000000000000000000000000000000000"
          ],
          "data": "0x000000000000000000000000000000000000000000000000016345785d8a0000",
          "blockHash": "0x6e03a3fe4ec193e51228370355ff86623818e9993c0952fc9b6dfe3ff970d0aa",
          "blockNumber": "0x32d5848",
          "transactionHash": "0xe3cb839cd9471a2910ac07a21da568d61d5a3cd0896306059b9dc64c75321e88",
          "transactionIndex": "0x16",
          "logIndex": "0x51",
          "removed": false
        }
      ],
      "logsBloom": "0x00000100000000000000000000000000000000000000000000001000000000000000080000000020000000002000000000040000000000200000000000200000100000001000000000000008a00000000000000000000000080000000000000000000000020000000000000000000800000000000000000000000010000000000000000000002000000000000000000000000004000000000000000000004000020000000000000000000000000000000000000000000800000000000000000000000002000000000000000000000000000800000000000020040180000020000010000000000200000000000004000000000000400000000000000000000000",
      "type": "0x2",
      "transactionHash": "0xe3cb839cd9471a2910ac07a21da568d61d5a3cd0896306059b9dc64c75321e88",
      "transactionIndex": "0x16",
      "blockHash": "0x6e03a3fe4ec193e51228370355ff86623818e9993c0952fc9b6dfe3ff970d0aa",
      "blockNumber": "0x32d5848",
      "gasUsed": "0x21c13",
      "effectiveGasPrice": "0x5d22dbf8c",
      "from": "0xe6ffe14186c6ec0e7c39270dfb2281759ce75f70",
      "to": "0x037dd169f5978d0d6853ab824c9f029480520190",
      "contractAddress": null,
      "l1BaseFeeScalar": "0x0",
      "l1BlobBaseFee": "0x1974afb",
      "l1BlobBaseFeeScalar": "0x0",
      "l1Fee": "0x0",
      "l1GasPrice": "0x15be19ba",
      "l1GasUsed": "0x640"
    },
    {
      "status": "0x1",
      "cumulativeGasUsed": "0x16ffce",
      "logs": [
        {
          "address": "0x037dd169f5978d0d6853ab824c9f029480520190",
          "topics": [
            "0xf3de52a7ca1a3a37721fcef7dae4c389c0fe6f3b746e223f73153a838b7d1caf",
            "0x0000000000000000000000000000000000000000000000000000000000000000"
          ],
          "data": "0x",
          "blockHash": "0x65bdefad128612faec589c65c593c9f3b1e22def89b9ccd16ccabef1333d8b80",
          "blockNumber": "0x32d5849",
          "transactionHash": "0x498fba6c22d5c2808c0a27b101efda2b3d36a4ddad4d2bc04f4b5bb6dd4c3acc",
          "transactionIndex": "0xe",
          "logIndex": "0x37",
          "removed": false
        }
      ],
      "logsBloom": "0x00000000000010000000000000000000000000000000000000000000000000000000000000000000000000000000000000040000000000000000000000000000000000000000000000000000000000000000000000000000000000000000000000000000020000000000000000000800000000000000000000000000000000000000000000002000000000000000000000000004000000000000000000000000000000000000000002000000000000000000000000000000000000000000000000000000000000000000000000000000000000000000000000000000000020000000000000000000000000000000000000000000000000000100000000000000",
      "type": "0x2",
      "transactionHash": "0x498fba6c22d5c2808c0a27b101efda2b3d36a4ddad4d2bc04f4b5bb6dd4c3acc",
      "transactionIndex": "0xe",
      "blockHash": "0x65bdefad128612faec589c65c593c9f3b1e22def89b9ccd16ccabef1333d8b80",
      "blockNumber": "0x32d5849",
      "gasUsed": "0x6ad1",
      "effectiveGasPrice": "0x5d22dbf8c",
      "from": "0xe6ffe14186c6ec0e7c39270dfb2281759ce75f70",
      "to": "0x037dd169f5978d0d6853ab824c9f029480520190",
      "contractAddress": null,
      "l1BaseFeeScalar": "0x0",
      "l1BlobBaseFee": "0x1974afb",
      "l1BlobBaseFeeScalar": "0x0",
      "l1Fee": "0x0",
      "l1GasPrice": "0x15be19ba",
      "l1GasUsed": "0x640"
    }
  ],
  "libraries": [],
  "pending": [],
  "returns": {},
  "timestamp": 1765204129234,
  "chain": 42220,
  "commit": "cab3576"
}