{
  "transactions": [
    {
      "hash": "0x501d3cd89824c269e42def9ee28372874f20e710c831de080ca9d7383650000e",
      "transactionType": "CALL",
      "contractName": null,
      "contractAddress": "0x350cb954d3d92120e050ba24306932a35dde60ff",
      "function": "registerCreator()",
      "arguments": [],
      "transaction": {
        "from": "0xe6ffe14186c6ec0e7c39270dfb2281759ce75f70",
        "to": "0x350cb954d3d92120e050ba24306932a35dde60ff",
        "gas": "0xff2a",
        "value": "0x0",
        "input": "0x0c6c8fe8",
        "nonce": "0x6",
        "chainId": "0xa4ec"
      },
      "additionalContracts": [],
      "isFixedGasLimit": false
    },
    {
      "hash": "0xa882fdaa4e653fea528b15327d08e420245c39f35a9d625f36506dfa8d2378ff",
      "transactionType": "CALL",
      "contractName": null,
      "contractAddress": "0x350cb954d3d92120e050ba24306932a35dde60ff",
      "function": "createHunt(string,string)",
      "arguments": [
        "Demo Hunt",
        "A demo treasure hunt"
      ],
      "transaction": {
        "from": "0xe6ffe14186c6ec0e7c39270dfb2281759ce75f70",
        "to": "0x350cb954d3d92120e050ba24306932a35dde60ff",
        "gas": "0x3cfbf",
        "value": "0x0",
        "input": "0xb3dad62800000000000000000000000000000000000000000000000000000000000000400000000000000000000000000000000000000000000000000000000000000080000000000000000000000000000000000000000000000000000000000000000944656d6f2048756e7400000000000000000000000000000000000000000000000000000000000000000000000000000000000000000000000000000000000014412064656d6f2074726561737572652068756e74000000000000000000000000",
        "nonce": "0x7",
        "chainId": "0xa4ec"
      },
      "additionalContracts": [],
      "isFixedGasLimit": false
    },
    {
      "hash": "0x7f96471017a2195ed6837596edce34c4d6ade7fc89c3c1e15198372c3e4a59f9",
      "transactionType": "CALL",
      "contractName": null,
      "contractAddress": "0x350cb954d3d92120e050ba24306932a35dde60ff",
      "function": "addClueWithGeneratedQr(uint256,string,uint256,string)",
      "arguments": [
        "0",
        "Find the statue at the town square",
        "40000000000000000",
        "Town Square"
      ],
      "transaction": {
        "from": "0xe6ffe14186c6ec0e7c39270dfb2281759ce75f70",
        "to": "0x350cb954d3d92120e050ba24306932a35dde60ff",
        "gas": "0x6f596",
        "value": "0x0",
        "input": "0x0093007200000000000000000000000000000000000000000000000000000000000000000000000000000000000000000000000000000000000000000000000000000080000000000000000000000000000000000000000000000000008e1bc9bf04000000000000000000000000000000000000000000000000000000000000000000e0000000000000000000000000000000000000000000000000000000000000002246696e6420746865207374617475652061742074686520746f776e20737175617265000000000000000000000000000000000000000000000000000000000000000000000000000000000000000000000000000000000000000000000000000b546f776e20537175617265000000000000000000000000000000000000000000",
        "nonce": "0x8",
        "chainId": "0xa4ec"
      },
      "additionalContracts": [],
      "isFixedGasLimit": false
    },
    {
      "hash": "0xb442342e4b7a0741240c38b76991fa8e6152727091e5d50ca0da5ceb272d3bf0",
      "transactionType": "CALL",
      "contractName": null,
      "contractAddress": "0x350cb954d3d92120e050ba24306932a35dde60ff",
      "function": "addClueWithGeneratedQr(uint256,string,uint256,string)",
      "arguments": [
        "0",
        "Follow the river to the old bridge",
        "30000000000000000",
        "Old Bridge"
      ],
      "transaction": {
        "from": "0xe6ffe14186c6ec0e7c39270dfb2281759ce75f70",
        "to": "0x350cb954d3d92120e050ba24306932a35dde60ff",
        "gas": "0x65394",
        "value": "0x0",
        "input": "0x0093007200000000000000000000000000000000000000000000000000000000000000000000000000000000000000000000000000000000000000000000000000000080000000000000000000000000000000000000000000000000006a94d74f43000000000000000000000000000000000000000000000000000000000000000000e00000000000000000000000000000000000000000000000000000000000000022466f6c6c6f772074686520726976657220746f20746865206f6c6420627269646765000000000000000000000000000000000000000000000000000000000000000000000000000000000000000000000000000000000000000000000000000a4f6c642042726964676500000000000000000000000000000000000000000000",
        "nonce": "0x9",
        "chainId": "0xa4ec"
      },
      "additionalContracts": [],
      "isFixedGasLimit": false
    },
    {
      "hash": "0x25e2c0b5589453ebb3ef8d51f4e1893844d9d90b36c167f485cf39cec25964ae",
      "transactionType": "CALL",
      "contractName": null,
      "contractAddress": "0x350cb954d3d92120e050ba24306932a35dde60ff",
      "function": "addClueWithGeneratedQr(uint256,string,uint256,string)",
      "arguments": [
        "0",
        "The treasure is buried under the old oak tree",
        "30000000000000000",
        "Ancient Oak"
      ],
      "transaction": {
        "from": "0xe6ffe14186c6ec0e7c39270dfb2281759ce75f70",
        "to": "0x350cb954d3d92120e050ba24306932a35dde60ff",
        "gas": "0x6545b",
        "value": "0x0",
        "input": "0x0093007200000000000000000000000000000000000000000000000000000000000000000000000000000000000000000000000000000000000000000000000000000080000000000000000000000000000000000000000000000000006a94d74f43000000000000000000000000000000000000000000000000000000000000000000e0000000000000000000000000000000000000000000000000000000000000002d5468652074726561737572652069732062757269656420756e64657220746865206f6c64206f616b207472656500000000000000000000000000000000000000000000000000000000000000000000000000000000000000000000000000000b416e6369656e74204f616b000000000000000000000000000000000000000000",
        "nonce": "0xa",
        "chainId": "0xa4ec"
      },
      "additionalContracts": [],
      "isFixedGasLimit": false
    },
    {
      "hash": "0x4477c34aec17c9594846443fadaac436b354ac2bee79bedf6213ad67cfadf450",
      "transactionType": "CALL",
      "contractName": null,
      "contractAddress": "0x765de816845861e75a25fca122bb6898b8b1282a",
      "function": "approve(address,uint256)",
      "arguments": [
        "0x350cB954D3D92120E050BA24306932a35dDe60Ff",
        "100000000000000000"
      ],
      "transaction": {
        "from": "0xe6ffe14186c6ec0e7c39270dfb2281759ce75f70",
        "to": "0x765de816845861e75a25fca122bb6898b8b1282a",
        "gas": "0x1153a",
        "value": "0x0",
        "input": "0x095ea7b3000000000000000000000000350cb954d3d92120e050ba24306932a35dde60ff000000000000000000000000000000000000000000000000016345785d8a0000",
        "nonce": "0xb",
        "chainId": "0xa4ec"
      },
      "additionalContracts": [],
      "isFixedGasLimit": false
    },
    {
      "hash": "0x1274167872cd808b3a390aff12bf96a4b3eedea34270566633ef38be4f7154a6",
      "transactionType": "CALL",
      "contractName": null,
      "contractAddress": "0x350cb954d3d92120e050ba24306932a35dde60ff",
      "function": "fundHunt(uint256,uint256)",
      "arguments": [
        "0",
        "100000000000000000"
      ],
      "transaction": {
        "from": "0xe6ffe14186c6ec0e7c39270dfb2281759ce75f70",
        "to": "0x350cb954d3d92120e050ba24306932a35dde60ff",
        "gas": "0x2ea11",
        "value": "0x0",
        "input": "0x13d5f5c70000000000000000000000000000000000000000000000000000000000000000000000000000000000000000000000000000000000000000016345785d8a0000",
        "nonce": "0xc",
        "chainId": "0xa4ec"
      },
      "additionalContracts": [],
      "isFixedGasLimit": false
    },
    {
      "hash": "0xa78da99c5fb2c395c48e77db3cf1800897f07e05b686b89524fb16bb71bb4437",
      "transactionType": "CALL",
      "contractName": null,
      "contractAddress": "0x350cb954d3d92120e050ba24306932a35dde60ff",
      "function": "publishHunt(uint256)",
      "arguments": [
        "0"
      ],
      "transaction": {
        "from": "0xe6ffe14186c6ec0e7c39270dfb2281759ce75f70",
        "to": "0x350cb954d3d92120e050ba24306932a35dde60ff",
        "gas": "0x93a8",
        "value": "0x0",
        "input": "0x5640b4e90000000000000000000000000000000000000000000000000000000000000000",
        "nonce": "0xd",
        "chainId": "0xa4ec"
      },
      "additionalContracts": [],
      "isFixedGasLimit": false
    }
  ],
  "receipts": [
    {
      "status": "0x1",
      "cumulativeGasUsed": "0x6bbf6",
      "logs": [
        {
          "address": "0x350cb954d3d92120e050ba24306932a35dde60ff",
          "topics": [
            "0x177b4e655e9aaf45f5db25b396dfba96e0152f6adcf5d9a3e7d07276431d42e7",
            "0x000000000000000000000000e6ffe14186c6ec0e7c39270dfb2281759ce75f70"
          ],
          "data": "0x",
          "blockHash": "0x8c4663fad75d172437493f79083f4ba23c525a2e2b8aa9dbd55887dd388ad07a",
          "blockNumber": "0x32b08c3",
          "transactionHash": "0xa882fdaa4e653fea528b15327d08e420245c39f35a9d625f36506dfa8d2378ff",
          "transactionIndex": "0x4",
          "logIndex": "0x10",
          "removed": false
        }
      ],
      "logsBloom": "0x00000000000000000000000000000000000000000000000000000000000000000000000000000000000000000000000000000000000000000000000000000000000000000002000000004000800000000000000000000000000000000000000000000000000000000000000000000000000000000000000000000000000000000000000000000000000000000200000000000000000000000000000000000000000000000000000000000000000000000000000000000000000000000000000000000000000000400000000000000000000000000000000000040080000000000000000000000000000004000800000000000000000000000000000000000000",
      "type": "0x2",
      "transactionHash": "0xa882fdaa4e653fea528b15327d08e420245c39f35a9d625f36506dfa8d2378ff",
      "transactionIndex": "0x4",
      "blockHash": "0x8c4663fad75d172437493f79083f4ba23c525a2e2b8aa9dbd55887dd388ad07a",
      "blockNumber": "0x32b08c3",
      "gasUsed": "0xae79",
      "effectiveGasPrice": "0x5d22e82d9",
      "from": "0xe6ffe14186c6ec0e7c39270dfb2281759ce75f70",
      "to": "0x350cb954d3d92120e050ba24306932a35dde60ff",
      "contractAddress": null,
      "l1BaseFeeScalar": "0x0",
      "l1BlobBaseFee": "0x1414a4",
      "l1BlobBaseFeeScalar": "0x0",
      "l1Fee": "0x0",
      "l1GasPrice": "0x17b4539",
      "l1GasUsed": "0x640"
    },
    {
      "status": "0x1",
      "cumulativeGasUsed": "0x97e63",
      "logs": [
        {
          "address": "0x72d955c58c5580e99c9d23ce2bd1fd73a58419c2",
          "topics": [
            "0x4e13863bf5967e521c15e9e153e633a8fbd4401dd853de4571ca60c9fd9008c6",
            "0x0000000000000000000000000000000000000000000000000000000000000000",
            "0x000000000000000000000000350cb954d3d92120e050ba24306932a35dde60ff"
          ],
          "data": "0x000000000000000000000000000000000000000000000000000000000000006000000000000000000000000000000000000000000000000000000000000000000000000000000000000000000000000000000000000000000000000000000000000000000000000000000000000000000000000000000000000000000000000944656d6f2048756e740000000000000000000000000000000000000000000000",
          "blockHash": "0x8c4663fad75d172437493f79083f4ba23c525a2e2b8aa9dbd55887dd388ad07a",
          "blockNumber": "0x32b08c3",
          "transactionHash": "0x501d3cd89824c269e42def9ee28372874f20e710c831de080ca9d7383650000e",
          "transactionIndex": "0x5",
          "logIndex": "0x11",
          "removed": false
        },
        {
          "address": "0x350cb954d3d92120e050ba24306932a35dde60ff",
          "topics": [
            "0xab55084919f639a2fec08f706e428352e6240300cd9196650e65791827073720",
            "0x0000000000000000000000000000000000000000000000000000000000000000",
            "0x000000000000000000000000e6ffe14186c6ec0e7c39270dfb2281759ce75f70"
          ],
          "data": "0x",
          "blockHash": "0x8c4663fad75d172437493f79083f4ba23c525a2e2b8aa9dbd55887dd388ad07a",
          "blockNumber": "0x32b08c3",
          "transactionHash": "0x501d3cd89824c269e42def9ee28372874f20e710c831de080ca9d7383650000e",
          "transactionIndex": "0x5",
          "logIndex": "0x12",
          "removed": false
        }
      ],
      "logsBloom": "0x00000000000000000000010000000001000000000000000000000000000000000000000000000000000000000000000000000000000000000000000000000000000000000000000000004000800000000000000020010000000000000000000000000000020000000000000000000808000000000000000010000000000000000000000000000000000000000200000000000000000800000000000000000000000000000000000000000000000000000000000000000000000000000000000000000000000000000000000000024000000000800000000000040080000020000000000000000000000000400800000000000000008000000000000000000000",
      "type": "0x2",
      "transactionHash": "0x501d3cd89824c269e42def9ee28372874f20e710c831de080ca9d7383650000e",
      "transactionIndex": "0x5",
      "blockHash": "0x8c4663fad75d172437493f79083f4ba23c525a2e2b8aa9dbd55887dd388ad07a",
      "blockNumber": "0x32b08c3",
      "gasUsed": "0x2c26d",
      "effectiveGasPrice": "0x5d22e82d9",
      "from": "0xe6ffe14186c6ec0e7c39270dfb2281759ce75f70",
      "to": "0x350cb954d3d92120e050ba24306932a35dde60ff",
      "contractAddress": null,
      "l1BaseFeeScalar": "0x0",
      "l1BlobBaseFee": "0x1414a4",
      "l1BlobBaseFeeScalar": "0x0",
      "l1Fee": "0x0",
      "l1GasPrice": "0x17b4539",
      "l1GasUsed": "0x6a4"
    },
    {
      "status": "0x1",
      "cumulativeGasUsed": "0x130a2a",
      "logs": [
        {
          "address": "0x72d955c58c5580e99c9d23ce2bd1fd73a58419c2",
          "topics": [
            "0xb79b7b154ffe48013fed56fafd7a5cd21aba59aec515ff7f4bc6bf30db1b293d",
            "0x0000000000000000000000000000000000000000000000000000000000000000"
          ],
          "data": "0x0000000000000000000000000000000000000000000000000000000000000000000000000000000000000000000000000000000000000000008e1bc9bf040000",
          "blockHash": "0x8c4663fad75d172437493f79083f4ba23c525a2e2b8aa9dbd55887dd388ad07a",
          "blockNumber": "0x32b08c3",
          "transactionHash": "0x25e2c0b5589453ebb3ef8d51f4e1893844d9d90b36c167f485cf39cec25964ae",
          "transactionIndex": "0x8",
          "logIndex": "0x1d",
          "removed": false
        },
        {
          "address": "0x350cb954d3d92120e050ba24306932a35dde60ff",
          "topics": [
            "0x761f939497257d00446149a5137ed85ce054943dc7a356c104530249c6a94d20",
            "0x0000000000000000000000000000000000000000000000000000000000000000"
          ],
          "data": "0x00000000000000000000000000000000000000000000000000000000000000000000000000000000000000000000000000000000000000000000000000000040000000000000000000000000000000000000000000000000000000000000006063656c6f2d68756e743a2f2f68756e742f302f636c75652f302f746f6b656e2f62396364643434653662653639663962653037396164386264323638313362303166306531323366633664633963346566613364323361646566643562373963",
          "blockHash": "0x8c4663fad75d172437493f79083f4ba23c525a2e2b8aa9dbd55887dd388ad07a",
          "blockNumber": "0x32b08c3",
          "transactionHash": "0x25e2c0b5589453ebb3ef8d51f4e1893844d9d90b36c167f485cf39cec25964ae",
          "transactionIndex": "0x8",
          "logIndex": "0x1e",
          "removed": false
        }
      ],
      "logsBloom": "0x00000400000000000000010000000001000000000000000000000000000000000000000000000000000000000000000000000000000000000000000000000000000000000010000000004000000000000000000000000000000000000000000000000000020000000000000000000800000000000000000000000000000000000000010008000000000000000200000000000000000800000000000000000000000000000000000000000000000000000000000000000000000000000000000000000800000000000000000000000000000000000000000000000000000020000000000000000000000000000800004000000000000000000000000000000000",
      "type": "0x2",
      "transactionHash": "0x25e2c0b5589453ebb3ef8d51f4e1893844d9d90b36c167f485cf39cec25964ae",
      "transactionIndex": "0x8",
      "blockHash": "0x8c4663fad75d172437493f79083f4ba23c525a2e2b8aa9dbd55887dd388ad07a",
      "blockNumber": "0x32b08c3",
      "gasUsed": "0x509d7",
      "effectiveGasPrice": "0x5d22e82d9",
      "from": "0xe6ffe14186c6ec0e7c39270dfb2281759ce75f70",
      "to": "0x350cb954d3d92120e050ba24306932a35dde60ff",
      "contractAddress": null,
      "l1BaseFeeScalar": "0x0",
      "l1BlobBaseFee": "0x1414a4",
      "l1BlobBaseFeeScalar": "0x0",
      "l1Fee": "0x0",
      "l1GasPrice": "0x17b4539",
      "l1GasUsed": "0x7d8"
    },
    {
      "status": "0x1",
      "cumulativeGasUsed": "0x179eb7",
      "logs": [
        {
          "address": "0x72d955c58c5580e99c9d23ce2bd1fd73a58419c2",
          "topics": [
            "0xb79b7b154ffe48013fed56fafd7a5cd21aba59aec515ff7f4bc6bf30db1b293d",
            "0x0000000000000000000000000000000000000000000000000000000000000000"
          ],
          "data": "0x0000000000000000000000000000000000000000000000000000000000000001000000000000000000000000000000000000000000000000006a94d74f430000",
          "blockHash": "0x8c4663fad75d172437493f79083f4ba23c525a2e2b8aa9dbd55887dd388ad07a",
          "blockNumber": "0x32b08c3",
          "transactionHash": "0x7f96471017a2195ed6837596edce34c4d6ade7fc89c3c1e15198372c3e4a59f9",
          "transactionIndex": "0x9",
          "logIndex": "0x1f",
          "removed": false
        },
        {
          "address": "0x350cb954d3d92120e050ba24306932a35dde60ff",
          "topics": [
            "0x761f939497257d00446149a5137ed85ce054943dc7a356c104530249c6a94d20",
            "0x0000000000000000000000000000000000000000000000000000000000000000"
          ],
          "data": "0x00000000000000000000000000000000000000000000000000000000000000010000000000000000000000000000000000000000000000000000000000000040000000000000000000000000000000000000000000000000000000000000006063656c6f2d68756e743a2f2f68756e742f302f636c75652f312f746f6b656e2f64613633666565363538343461386266643865336438376265333564646130383461336630626532303438613537616337396464653639653435643464666430",
          "blockHash": "0x8c4663fad75d172437493f79083f4ba23c525a2e2b8aa9dbd55887dd388ad07a",
          "blockNumber": "0x32b08c3",
          "transactionHash": "0x7f96471017a2195ed6837596edce34c4d6ade7fc89c3c1e15198372c3e4a59f9",
          "transactionIndex": "0x9",
          "logIndex": "0x20",
          "removed": false
        }
      ],
      "logsBloom": "0x00000400000000000000010000000001000000000000000000000000000000000000000000000000000000000000000000000000000000000000000000000000000000000010000000004000000000000000000000000000000000000000000000000000020000000000000000000800000000000000000000000000000000000000010008000000000000000200000000000000000800000000000000000000000000000000000000000000000000000000000000000000000000000000000000000800000000000000000000000000000000000000000000000000000020000000000000000000000000000800004000000000000000000000000000000000",
      "type": "0x2",
      "transactionHash": "0x7f96471017a2195ed6837596edce34c4d6ade7fc89c3c1e15198372c3e4a59f9",
      "transactionIndex": "0x9",
      "blockHash": "0x8c4663fad75d172437493f79083f4ba23c525a2e2b8aa9dbd55887dd388ad07a",
      "blockNumber": "0x32b08c3",
      "gasUsed": "0x4948d",
      "effectiveGasPrice": "0x5d22e82d9",
      "from": "0xe6ffe14186c6ec0e7c39270dfb2281759ce75f70",
      "to": "0x350cb954d3d92120e050ba24306932a35dde60ff",
      "contractAddress": null,
      "l1BaseFeeScalar": "0x0",
      "l1BlobBaseFee": "0x1414a4",
      "l1BlobBaseFeeScalar": "0x0",
      "l1Fee": "0x0",
      "l1GasPrice": "0x17b4539",
      "l1GasUsed": "0x7d8"
    },
    {
      "status": "0x1",
      "cumulativeGasUsed": "0x99345",
      "logs": [
        {
          "address": "0x72d955c58c5580e99c9d23ce2bd1fd73a58419c2",
          "topics": [
            "0xb79b7b154ffe48013fed56fafd7a5cd21aba59aec515ff7f4bc6bf30db1b293d",
            "0x0000000000000000000000000000000000000000000000000000000000000000"
          ],
          "data": "0x0000000000000000000000000000000000000000000000000000000000000002000000000000000000000000000000000000000000000000006a94d74f430000",
          "blockHash": "0x89c3762ea6cbe9345b4087196e1feacdf1df00fb057f80081ab0ff3fb575eb15",
          "blockNumber": "0x32b08c4",
          "transactionHash": "0xb442342e4b7a0741240c38b76991fa8e6152727091e5d50ca0da5ceb272d3bf0",
          "transactionIndex": "0x3",
          "logIndex": "0x7",
          "removed": false
        },
        {
          "address": "0x350cb954d3d92120e050ba24306932a35dde60ff",
          "topics": [
            "0x761f939497257d00446149a5137ed85ce054943dc7a356c104530249c6a94d20",
            "0x0000000000000000000000000000000000000000000000000000000000000000"
          ],
          "data": "0x00000000000000000000000000000000000000000000000000000000000000020000000000000000000000000000000000000000000000000000000000000040000000000000000000000000000000000000000000000000000000000000006063656c6f2d68756e743a2f2f68756e742f302f636c75652f322f746f6b656e2f38643036326134363131396231626139633031653464636661333738646531343239643436363163353065313866646535363262393833353465623164633966",
          "blockHash": "0x89c3762ea6cbe9345b4087196e1feacdf1df00fb057f80081ab0ff3fb575eb15",
          "blockNumber": "0x32b08c4",
          "transactionHash": "0xb442342e4b7a0741240c38b76991fa8e6152727091e5d50ca0da5ceb272d3bf0",
          "transactionIndex": "0x3",
          "logIndex": "0x8",
          "removed": false
        }
      ],
      "logsBloom": "0x00000400000000000000010000000001000000000000000000000000000000000000000000000000000000000000000000000000000000000000000000000000000000000010000000004000000000000000000000000000000000000000000000000000020000000000000000000800000000000000000000000000000000000000010008000000000000000200000000000000000800000000000000000000000000000000000000000000000000000000000000000000000000000000000000000800000000000000000000000000000000000000000000000000000020000000000000000000000000000800004000000000000000000000000000000000",
      "type": "0x2",
      "transactionHash": "0xb442342e4b7a0741240c38b76991fa8e6152727091e5d50ca0da5ceb272d3bf0",
      "transactionIndex": "0x3",
      "blockHash": "0x89c3762ea6cbe9345b4087196e1feacdf1df00fb057f80081ab0ff3fb575eb15",
      "blockNumber": "0x32b08c4",
      "gasUsed": "0x4951d",
      "effectiveGasPrice": "0x5d22e82d9",
      "from": "0xe6ffe14186c6ec0e7c39270dfb2281759ce75f70",
      "to": "0x350cb954d3d92120e050ba24306932a35dde60ff",
      "contractAddress": null,
      "l1BaseFeeScalar": "0x0",
      "l1BlobBaseFee": "0x1414a4",
      "l1BlobBaseFeeScalar": "0x0",
      "l1Fee": "0x0",
      "l1GasPrice": "0x17b4539",
      "l1GasUsed": "0x8c9"
    },
    {
      "status": "0x1",
      "cumulativeGasUsed": "0xa5bfb",
      "logs": [
        {
          "address": "0x765de816845861e75a25fca122bb6898b8b1282a",
          "topics": [
            "0x8c5be1e5ebec7d5bd14f71427d1e84f3dd0314c0f7b2291e5b200ac8c7c3b925",
            "0x000000000000000000000000e6ffe14186c6ec0e7c39270dfb2281759ce75f70",
            "0x000000000000000000000000350cb954d3d92120e050ba24306932a35dde60ff"
          ],
          "data": "0x000000000000000000000000000000000000000000000000016345785d8a0000",
          "blockHash": "0x89c3762ea6cbe9345b4087196e1feacdf1df00fb057f80081ab0ff3fb575eb15",
          "blockNumber": "0x32b08c4",
          "transactionHash": "0x1274167872cd808b3a390aff12bf96a4b3eedea34270566633ef38be4f7154a6",
          "transactionIndex": "0x4",
          "logIndex": "0x9",
          "removed": false
        }
      ],
      "logsBloom": "0x00000000000000000000000000000000000000000000000000000000000000000000080000000000000000002000000000000000000000000000000000200000000000000000000000000000800000000000000000000000000000000000000000000000000000000000000000000008000000000000000010000000000000000000000000000000000000000000000000000000000000000000000000000000020000000000000000000000000000000000000000000000000000000000000000000000000000000000000000004000000800000000000000040080000000000010000000000000000000000000000000000000000000000000000000000000",
      "type": "0x2",
      "transactionHash": "0x1274167872cd808b3a390aff12bf96a4b3eedea34270566633ef38be4f7154a6",
      "transactionIndex": "0x4",
      "blockHash": "0x89c3762ea6cbe9345b4087196e1feacdf1df00fb057f80081ab0ff3fb575eb15",
      "blockNumber": "0x32b08c4",
      "gasUsed": "0xc8b6",
      "effectiveGasPrice": "0x5d22e82d9",
      "from": "0xe6ffe14186c6ec0e7c39270dfb2281759ce75f70",
      "to": "0x765de816845861e75a25fca122bb6898b8b1282a",
      "contractAddress": null,
      "l1BaseFeeScalar": "0x0",
      "l1BlobBaseFee": "0x1414a4",
      "l1BlobBaseFeeScalar": "0x0",
      "l1Fee": "0x0",
      "l1GasPrice": "0x17b4539",
      "l1GasUsed": "0x640"
    },
    {
      "status": "0x1",
      "cumulativeGasUsed": "0xc781f",
      "logs": [
        {
          "address": "0x765de816845861e75a25fca122bb6898b8b1282a",
          "topics": [
            "0x8c5be1e5ebec7d5bd14f71427d1e84f3dd0314c0f7b2291e5b200ac8c7c3b925",
            "0x000000000000000000000000e6ffe14186c6ec0e7c39270dfb2281759ce75f70",
            "0x000000000000000000000000350cb954d3d92120e050ba24306932a35dde60ff"
          ],
          "data": "0x0000000000000000000000000000000000000000000000000000000000000000",
          "blockHash": "0x89c3762ea6cbe9345b4087196e1feacdf1df00fb057f80081ab0ff3fb575eb15",
          "blockNumber": "0x32b08c4",
          "transactionHash": "0xa78da99c5fb2c395c48e77db3cf1800897f07e05b686b89524fb16bb71bb4437",
          "transactionIndex": "0x5",
          "logIndex": "0xa",
          "removed": false
        },
        {
          "address": "0x765de816845861e75a25fca122bb6898b8b1282a",
          "topics": [
            "0xddf252ad1be2c89b69c2b068fc378daa952ba7f163c4a11628f55a4df523b3ef",
            "0x000000000000000000000000e6ffe14186c6ec0e7c39270dfb2281759ce75f70",
            "0x000000000000000000000000350cb954d3d92120e050ba24306932a35dde60ff"
          ],
          "data": "0x000000000000000000000000000000000000000000000000016345785d8a0000",
          "blockHash": "0x89c3762ea6cbe9345b4087196e1feacdf1df00fb057f80081ab0ff3fb575eb15",
          "blockNumber": "0x32b08c4",
          "transactionHash": "0xa78da99c5fb2c395c48e77db3cf1800897f07e05b686b89524fb16bb71bb4437",
          "transactionIndex": "0x5",
          "logIndex": "0xb",
          "removed": false
        },
        {
          "address": "0x765de816845861e75a25fca122bb6898b8b1282a",
          "topics": [
            "0x8c5be1e5ebec7d5bd14f71427d1e84f3dd0314c0f7b2291e5b200ac8c7c3b925",
            "0x000000000000000000000000350cb954d3d92120e050ba24306932a35dde60ff",
            "0x00000000000000000000000072d955c58c5580e99c9d23ce2bd1fd73a58419c2"
          ],
          "data": "0x000000000000000000000000000000000000000000000000016345785d8a0000",
          "blockHash": "0x89c3762ea6cbe9345b4087196e1feacdf1df00fb057f80081ab0ff3fb575eb15",
          "blockNumber": "0x32b08c4",
          "transactionHash": "0xa78da99c5fb2c395c48e77db3cf1800897f07e05b686b89524fb16bb71bb4437",
          "transactionIndex": "0x5",
          "logIndex": "0xc",
          "removed": false
        },
        {
          "address": "0x765de816845861e75a25fca122bb6898b8b1282a",
          "topics": [
            "0x8c5be1e5ebec7d5bd14f71427d1e84f3dd0314c0f7b2291e5b200ac8c7c3b925",
            "0x000000000000000000000000350cb954d3d92120e050ba24306932a35dde60ff",
            "0x00000000000000000000000072d955c58c5580e99c9d23ce2bd1fd73a58419c2"
          ],
          "data": "0x0000000000000000000000000000000000000000000000000000000000000000",
          "blockHash": "0x89c3762ea6cbe9345b4087196e1feacdf1df00fb057f80081ab0ff3fb575eb15",
          "blockNumber": "0x32b08c4",
          "transactionHash": "0xa78da99c5fb2c395c48e77db3cf1800897f07e05b686b89524fb16bb71bb4437",
          "transactionIndex": "0x5",
          "logIndex": "0xd",
          "removed": false
        },
        {
          "address": "0x765de816845861e75a25fca122bb6898b8b1282a",
          "topics": [
            "0xddf252ad1be2c89b69c2b068fc378daa952ba7f163c4a11628f55a4df523b3ef",
            "0x000000000000000000000000350cb954d3d92120e050ba24306932a35dde60ff",
            "0x00000000000000000000000072d955c58c5580e99c9d23ce2bd1fd73a58419c2"
          ],
          "data": "0x000000000000000000000000000000000000000000000000016345785d8a0000",
          "blockHash": "0x89c3762ea6cbe9345b4087196e1feacdf1df00fb057f80081ab0ff3fb575eb15",
          "blockNumber": "0x32b08c4",
          "transactionHash": "0xa78da99c5fb2c395c48e77db3cf1800897f07e05b686b89524fb16bb71bb4437",
          "transactionIndex": "0x5",
          "logIndex": "0xe",
          "removed": false
        },
        {
          "address": "0x72d955c58c5580e99c9d23ce2bd1fd73a58419c2",
          "topics": [
            "0x78d546d8b8a7f40ab99e496db8532aa8c7110533a78cf8e810befeb1c92160d0",
            "0x0000000000000000000000000000000000000000000000000000000000000000",
            "0x000000000000000000000000350cb954d3d92120e050ba24306932a35dde60ff"
          ],
          "data": "0x000000000000000000000000000000000000000000000000016345785d8a0000",
          "blockHash": "0x89c3762ea6cbe9345b4087196e1feacdf1df00fb057f80081ab0ff3fb575eb15",
          "blockNumber": "0x32b08c4",
          "transactionHash": "0xa78da99c5fb2c395c48e77db3cf1800897f07e05b686b89524fb16bb71bb4437",
          "transactionIndex": "0x5",
          "logIndex": "0xf",
          "removed": false
        },
        {
          "address": "0x350cb954d3d92120e050ba24306932a35dde60ff",
          "topics": [
            "0x15b254e6d59546e05673736768f3699e31af72c8dab1194ee701ae85f515b408",
            "0x0000000000000000000000000000000000000000000000000000000000000000"
          ],
          "data": "0x000000000000000000000000000000000000000000000000016345785d8a0000",
          "blockHash": "0x89c3762ea6cbe9345b4087196e1feacdf1df00fb057f80081ab0ff3fb575eb15",
          "blockNumber": "0x32b08c4",
          "transactionHash": "0xa78da99c5fb2c395c48e77db3cf1800897f07e05b686b89524fb16bb71bb4437",
          "transactionIndex": "0x5",
          "logIndex": "0x10",
          "removed": false
        }
      ],
      "logsBloom": "0x00000100000000000000010000000001000000000000000200000000000000000000080000000000000000002000000000000000000000200000000000200000000000000000000000004008a00000000000000000000000000000000000000000000000020000000000000000000808000000000000000010000010000000000000000000000000000000000200000000000000000800000000000000000000020000080000000000000000000000000000000000000800000000000000000000000002000000000000000000004000000800000000000000040180000020000010000000000200000000200800000000000000000000000000000000000000",
      "type": "0x2",
      "transactionHash": "0xa78da99c5fb2c395c48e77db3cf1800897f07e05b686b89524fb16bb71bb4437",
      "transactionIndex": "0x5",
      "blockHash": "0x89c3762ea6cbe9345b4087196e1feacdf1df00fb057f80081ab0ff3fb575eb15",
      "blockNumber": "0x32b08c4",
      "gasUsed": "0x21c24",
      "effectiveGasPrice": "0x5d22e82d9",
      "from": "0xe6ffe14186c6ec0e7c39270dfb2281759ce75f70",
      "to": "0x350cb954d3d92120e050ba24306932a35dde60ff",
      "contractAddress": null,
      "l1BaseFeeScalar": "0x0",
      "l1BlobBaseFee": "0x1414a4",
      "l1BlobBaseFeeScalar": "0x0",
      "l1Fee": "0x0",
      "l1GasPrice": "0x17b4539",
      "l1GasUsed": "0x640"
    },
    {
      "status": "0x1",
      "cumulativeGasUsed": "0xce306",
      "logs": [
        {
          "address": "0x350cb954d3d92120e050ba24306932a35dde60ff",
          "topics": [
            "0xf3de52a7ca1a3a37721fcef7dae4c389c0fe6f3b746e223f73153a838b7d1caf",
            "0x0000000000000000000000000000000000000000000000000000000000000000"
          ],
          "data": "0x",
          "blockHash": "0x89c3762ea6cbe9345b4087196e1feacdf1df00fb057f80081ab0ff3fb575eb15",
          "blockNumber": "0x32b08c4",
          "transactionHash": "0x4477c34aec17c9594846443fadaac436b354ac2bee79bedf6213ad67cfadf450",
          "transactionIndex": "0x6",
          "logIndex": "0x11",
          "removed": false
        }
      ],
      "logsBloom": "0x00000000000010000000000000000000000000000000000000000000000000000000000000000000000000000000000000000000000000000000000000000000000000000000000000004000000000000000000000000000000000000000000000000000020000000000000000000800000000000000000000000000000000000000000000000000000000000200000000000000000000000000000000000000000000000000000002000000000000000000000000000000000000000000000000000000000000000000000000000000000000000000000000000000000020000000000000000000000000000800000000000000000000000100000000000000",
      "type": "0x2",
      "transactionHash": "0x4477c34aec17c9594846443fadaac436b354ac2bee79bedf6213ad67cfadf450",
      "transactionIndex": "0x6",
      "blockHash": "0x89c3762ea6cbe9345b4087196e1feacdf1df00fb057f80081ab0ff3fb575eb15",
      "blockNumber": "0x32b08c4",
      "gasUsed": "0x6ae7",
      "effectiveGasPrice": "0x5d22e82d9",
      "from": "0xe6ffe14186c6ec0e7c39270dfb2281759ce75f70",
      "to": "0x350cb954d3d92120e050ba24306932a35dde60ff",
      "contractAddress": null,
      "l1BaseFeeScalar": "0x0",
      "l1BlobBaseFee": "0x1414a4",
      "l1BlobBaseFeeScalar": "0x0",
      "l1Fee": "0x0",
      "l1GasPrice": "0x17b4539",
      "l1GasUsed": "0x640"
    }
  ],
  "libraries": [],
  "pending": [],
  "returns": {},
  "timestamp": 1765052698883,
  "chain": 42220,
  "commit": "5eb46ee"
}