{
  "transactions": [
    {
      "hash": "0x48baea397c73bed8ebe00e543afccab6d5c408f609d6c4d0a701e19c85f72fde",
      "transactionType": "CALL",
      "contractName": null,
      "contractAddress": "0xaf0ab6a61c38a5100d1f268550a2e0e0b77e099a",
      "function": "registerCreator()",
      "arguments": [],
      "transaction": {
        "from": "0xe6ffe14186c6ec0e7c39270dfb2281759ce75f70",
        "to": "0xaf0ab6a61c38a5100d1f268550a2e0e0b77e099a",
        "gas": "0xff2a",
        "value": "0x0",
        "input": "0x0c6c8fe8",
        "nonce": "0x13",
        "chainId": "0xaa044c"
      },
      "additionalContracts": [],
      "isFixedGasLimit": false
    },
    {
      "hash": "0xed94f0c707994b7764e743cbdaec8dda3f12206936ec001a8ad0ad889cddb762",
      "transactionType": "CALL",
      "contractName": null,
      "contractAddress": "0xaf0ab6a61c38a5100d1f268550a2e0e0b77e099a",
      "function": "createHunt(string,string)",
      "arguments": [
        "Demo Hunt",
        "A demo treasure hunt"
      ],
      "transaction": {
        "from": "0xe6ffe14186c6ec0e7c39270dfb2281759ce75f70",
        "to": "0xaf0ab6a61c38a5100d1f268550a2e0e0b77e099a",
        "gas": "0x3cfbf",
        "value": "0x0",
        "input": "0xb3dad62800000000000000000000000000000000000000000000000000000000000000400000000000000000000000000000000000000000000000000000000000000080000000000000000000000000000000000000000000000000000000000000000944656d6f2048756e7400000000000000000000000000000000000000000000000000000000000000000000000000000000000000000000000000000000000014412064656d6f2074726561737572652068756e74000000000000000000000000",
        "nonce": "0x14",
        "chainId": "0xaa044c"
      },
      "additionalContracts": [],
      "isFixedGasLimit": false
    },
    {
      "hash": "0x6ca1135afdc0ba02245fe3643e6a7f16e3ceaefd4518d3ea3720cb7ed18b4d09",
      "transactionType": "CALL",
      "contractName": null,
      "contractAddress": "0xaf0ab6a61c38a5100d1f268550a2e0e0b77e099a",
      "function": "addClueWithGeneratedQr(uint256,string,uint256,string)",
      "arguments": [
        "0",
        "Find the statue at the town square",
        "500000000000000000",
        "Town Square"
      ],
      "transaction": {
        "from": "0xe6ffe14186c6ec0e7c39270dfb2281759ce75f70",
        "to": "0xaf0ab6a61c38a5100d1f268550a2e0e0b77e099a",
        "gas": "0x75e75",
        "value": "0x0",
        "input": "0x009300720000000000000000000000000000000000000000000000000000000000000000000000000000000000000000000000000000000000000000000000000000008000000000000000000000000000000000000000000000000006f05b59d3b2000000000000000000000000000000000000000000000000000000000000000000e0000000000000000000000000000000000000000000000000000000000000002246696e6420746865207374617475652061742074686520746f776e20737175617265000000000000000000000000000000000000000000000000000000000000000000000000000000000000000000000000000000000000000000000000000b546f776e20537175617265000000000000000000000000000000000000000000",
        "nonce": "0x15",
        "chainId": "0xaa044c"
      },
      "additionalContracts": [],
      "isFixedGasLimit": false
    },
    {
      "hash": "0x0582f582226cd5bc14fcf47e8c2e9e4e8fb03e776c3df47b0a1ec1638f8e7c04",
      "transactionType": "CALL",
      "contractName": null,
      "contractAddress": "0xaf0ab6a61c38a5100d1f268550a2e0e0b77e099a",
      "function": "addClueWithGeneratedQr(uint256,string,uint256,string)",
      "arguments": [
        "0",
        "Follow the river to the old bridge",
        "300000000000000000",
        "Old Bridge"
      ],
      "transaction": {
        "from": "0xe6ffe14186c6ec0e7c39270dfb2281759ce75f70",
        "to": "0xaf0ab6a61c38a5100d1f268550a2e0e0b77e099a",
        "gas": "0x6b2ec",
        "value": "0x0",
        "input": "0x00930072000000000000000000000000000000000000000000000000000000000000000000000000000000000000000000000000000000000000000000000000000000800000000000000000000000000000000000000000000000000429d069189e000000000000000000000000000000000000000000000000000000000000000000e00000000000000000000000000000000000000000000000000000000000000022466f6c6c6f772074686520726976657220746f20746865206f6c6420627269646765000000000000000000000000000000000000000000000000000000000000000000000000000000000000000000000000000000000000000000000000000a4f6c642042726964676500000000000000000000000000000000000000000000",
        "nonce": "0x16",
        "chainId": "0xaa044c"
      },
      "additionalContracts": [],
      "isFixedGasLimit": false
    },
    {
      "hash": "0x1d7879251385d6c8d701dadb59c089afe3ec0cd3910e8f6423799dacfd92abdc",
      "transactionType": "CALL",
      "contractName": null,
      "contractAddress": "0xaf0ab6a61c38a5100d1f268550a2e0e0b77e099a",
      "function": "addClueWithGeneratedQr(uint256,string,uint256,string)",
      "arguments": [
        "0",
        "The treasure is buried under the old oak tree",
        "200000000000000000",
        "Ancient Oak"
      ],
      "transaction": {
        "from": "0xe6ffe14186c6ec0e7c39270dfb2281759ce75f70",
        "to": "0xaf0ab6a61c38a5100d1f268550a2e0e0b77e099a",
        "gas": "0x6b3bf",
        "value": "0x0",
        "input": "0x009300720000000000000000000000000000000000000000000000000000000000000000000000000000000000000000000000000000000000000000000000000000008000000000000000000000000000000000000000000000000002c68af0bb14000000000000000000000000000000000000000000000000000000000000000000e0000000000000000000000000000000000000000000000000000000000000002d5468652074726561737572652069732062757269656420756e64657220746865206f6c64206f616b207472656500000000000000000000000000000000000000000000000000000000000000000000000000000000000000000000000000000b416e6369656e74204f616b000000000000000000000000000000000000000000",
        "nonce": "0x17",
        "chainId": "0xaa044c"
      },
      "additionalContracts": [],
      "isFixedGasLimit": false
    },
    {
      "hash": "0x8df5537e083dfc208eaeda35bd96516aa0b26c337b52a218d4000a3972e134a0",
      "transactionType": "CALL",
      "contractName": null,
      "contractAddress": "0x9a7be83f04ee0f092ff4f0da2a9e96adb2de1925",
      "function": "approve(address,uint256)",
      "arguments": [
        "0xAf0AB6a61c38a5100d1F268550a2e0e0b77e099a",
        "1000000000000000000"
      ],
      "transaction": {
        "from": "0xe6ffe14186c6ec0e7c39270dfb2281759ce75f70",
        "to": "0x9a7be83f04ee0f092ff4f0da2a9e96adb2de1925",
        "gas": "0xfd33",
        "value": "0x0",
        "input": "0x095ea7b3000000000000000000000000af0ab6a61c38a5100d1f268550a2e0e0b77e099a0000000000000000000000000000000000000000000000000de0b6b3a7640000",
        "nonce": "0x18",
        "chainId": "0xaa044c"
      },
      "additionalContracts": [],
      "isFixedGasLimit": false
    },
    {
      "hash": "0x05f6a00102af91cff8ac6e4ab2f5abc6d5745d8249961a30774434ff05efb7b0",
      "transactionType": "CALL",
      "contractName": null,
      "contractAddress": "0xaf0ab6a61c38a5100d1f268550a2e0e0b77e099a",
      "function": "fundHunt(uint256,uint256)",
      "arguments": [
        "0",
        "1000000000000000000"
      ],
      "transaction": {
        "from": "0xe6ffe14186c6ec0e7c39270dfb2281759ce75f70",
        "to": "0xaf0ab6a61c38a5100d1f268550a2e0e0b77e099a",
        "gas": "0x2cbc9",
        "value": "0x0",
        "input": "0x13d5f5c700000000000000000000000000000000000000000000000000000000000000000000000000000000000000000000000000000000000000000de0b6b3a7640000",
        "nonce": "0x19",
        "chainId": "0xaa044c"
      },
      "additionalContracts": [],
      "isFixedGasLimit": false
    },
    {
      "hash": "0x994518dc91d4a6ba0fa3b939b422a79437e0686ccaf68ecff0108ae7c976d5e2",
      "transactionType": "CALL",
      "contractName": null,
      "contractAddress": "0xaf0ab6a61c38a5100d1f268550a2e0e0b77e099a",
      "function": "publishHunt(uint256)",
      "arguments": [
        "0"
      ],
      "transaction": {
        "from": "0xe6ffe14186c6ec0e7c39270dfb2281759ce75f70",
        "to": "0xaf0ab6a61c38a5100d1f268550a2e0e0b77e099a",
        "gas": "0x93a8",
        "value": "0x0",
        "input": "0x5640b4e90000000000000000000000000000000000000000000000000000000000000000",
        "nonce": "0x1a",
        "chainId": "0xaa044c"
      },
      "additionalContracts": [],
      "isFixedGasLimit": false
    }
  ],
  "receipts": [
    {
      "status": "0x1",
      "cumulativeGasUsed": "0x16259",
      "logs": [
        {
          "address": "0xaf0ab6a61c38a5100d1f268550a2e0e0b77e099a",
          "topics": [
            "0x177b4e655e9aaf45f5db25b396dfba96e0152f6adcf5d9a3e7d07276431d42e7",
            "0x000000000000000000000000e6ffe14186c6ec0e7c39270dfb2281759ce75f70"
          ],
          "data": "0x",
          "blockHash": "0xbb37dc8a6116afb1ae2efeb94a62b653d8b0ed8578d6b57474be8495684073eb",
          "blockNumber": "0xb2cbd7",
          "transactionHash": "0x6ca1135afdc0ba02245fe3643e6a7f16e3ceaefd4518d3ea3720cb7ed18b4d09",
          "transactionIndex": "0x1",
          "logIndex": "0x0",
          "removed": false
        }
      ],
      "logsBloom": "0x00000000000000000000000000000000000000000000000000000000000000000000000000000000000000000000000000000000000000002000000000000000000000000002000000000000800000000000000000000000000000000000000000000000000000000000000000000000080000000000000000000000000000000000000000000000000000000000000000000000000000000000000000000000000000000000000000000000000000000000000000000000000000000000000000000000000000400000000000000000000000000000000000040080000000000000000000000000000004000000800000000000000000000000000000000000",
      "type": "0x2",
      "transactionHash": "0x6ca1135afdc0ba02245fe3643e6a7f16e3ceaefd4518d3ea3720cb7ed18b4d09",
      "transactionIndex": "0x1",
      "blockHash": "0xbb37dc8a6116afb1ae2efeb94a62b653d8b0ed8578d6b57474be8495684073eb",
      "blockNumber": "0xb2cbd7",
      "gasUsed": "0xae79",
      "effectiveGasPrice": "0x5d21dba01",
      "from": "0xe6ffe14186c6ec0e7c39270dfb2281759ce75f70",
      "to": "0xaf0ab6a61c38a5100d1f268550a2e0e0b77e099a",
      "contractAddress": null,
      "l1BaseFeeScalar": "0x0",
      "l1BlobBaseFee": "0x1",
      "l1BlobBaseFeeScalar": "0x0",
      "l1Fee": "0x0",
      "l1GasPrice": "0x9",
      "l1GasUsed": "0x640"
    },
    {
      "status": "0x1",
      "cumulativeGasUsed": "0x424c6",
      "logs": [
        {
          "address": "0x95e839007ab91261586df829358fd16274d93678",
          "topics": [
            "0x4e13863bf5967e521c15e9e153e633a8fbd4401dd853de4571ca60c9fd9008c6",
            "0x0000000000000000000000000000000000000000000000000000000000000000",
            "0x000000000000000000000000af0ab6a61c38a5100d1f268550a2e0e0b77e099a"
          ],
          "data": "0x000000000000000000000000000000000000000000000000000000000000006000000000000000000000000000000000000000000000000000000000000000000000000000000000000000000000000000000000000000000000000000000000000000000000000000000000000000000000000000000000000000000000000944656d6f2048756e740000000000000000000000000000000000000000000000",
          "blockHash": "0xbb37dc8a6116afb1ae2efeb94a62b653d8b0ed8578d6b57474be8495684073eb",
          "blockNumber": "0xb2cbd7",
          "transactionHash": "0x48baea397c73bed8ebe00e543afccab6d5c408f609d6c4d0a701e19c85f72fde",
          "transactionIndex": "0x2",
          "logIndex": "0x1",
          "removed": false
        },
        {
          "address": "0xaf0ab6a61c38a5100d1f268550a2e0e0b77e099a",
          "topics": [
            "0xab55084919f639a2fec08f706e428352e6240300cd9196650e65791827073720",
            "0x0000000000000000000000000000000000000000000000000000000000000000",
            "0x000000000000000000000000e6ffe14186c6ec0e7c39270dfb2281759ce75f70"
          ],
          "data": "0x",
          "blockHash": "0xbb37dc8a6116afb1ae2efeb94a62b653d8b0ed8578d6b57474be8495684073eb",
          "blockNumber": "0xb2cbd7",
          "transactionHash": "0x48baea397c73bed8ebe00e543afccab6d5c408f609d6c4d0a701e19c85f72fde",
          "transactionIndex": "0x2",
          "logIndex": "0x2",
          "removed": false
        }
      ],
      "logsBloom": "0x000000000000000080000000000000000000000000000000000000000000000000000000000000000000000000000000000000000000000020000000000000000000000000000000000000008000000000000000200100000000000000000000000000000200000000000000000008000800000000000000000000000000000000000000000000000000000000000000000000000000000000000000000002000000000000000800000000000000000000000000000000000000000000000000000000200000000000000000000200000000008000000000000c0080000020000000010000000000000000400000800000000000008000000000000000000000",
      "type": "0x2",
      "transactionHash": "0x48baea397c73bed8ebe00e543afccab6d5c408f609d6c4d0a701e19c85f72fde",
      "transactionIndex": "0x2",
      "blockHash": "0xbb37dc8a6116afb1ae2efeb94a62b653d8b0ed8578d6b57474be8495684073eb",
      "blockNumber": "0xb2cbd7",
      "gasUsed": "0x2c26d",
      "effectiveGasPrice": "0x5d21dba01",
      "from": "0xe6ffe14186c6ec0e7c39270dfb2281759ce75f70",
      "to": "0xaf0ab6a61c38a5100d1f268550a2e0e0b77e099a",
      "contractAddress": null,
      "l1BaseFeeScalar": "0x0",
      "l1BlobBaseFee": "0x1",
      "l1BlobBaseFeeScalar": "0x0",
      "l1Fee": "0x0",
      "l1GasPrice": "0x9",
      "l1GasUsed": "0x68a"
    },
    {
      "status": "0x1",
      "cumulativeGasUsed": "0x92ea9",
      "logs": [
        {
          "address": "0x95e839007ab91261586df829358fd16274d93678",
          "topics": [
            "0xb79b7b154ffe48013fed56fafd7a5cd21aba59aec515ff7f4bc6bf30db1b293d",
            "0x0000000000000000000000000000000000000000000000000000000000000000"
          ],
          "data": "0x000000000000000000000000000000000000000000000000000000000000000000000000000000000000000000000000000000000000000006f05b59d3b20000",
          "blockHash": "0xbb37dc8a6116afb1ae2efeb94a62b653d8b0ed8578d6b57474be8495684073eb",
          "blockNumber": "0xb2cbd7",
          "transactionHash": "0x1d7879251385d6c8d701dadb59c089afe3ec0cd3910e8f6423799dacfd92abdc",
          "transactionIndex": "0x3",
          "logIndex": "0x3",
          "removed": false
        },
        {
          "address": "0xaf0ab6a61c38a5100d1f268550a2e0e0b77e099a",
          "topics": [
            "0x761f939497257d00446149a5137ed85ce054943dc7a356c104530249c6a94d20",
            "0x0000000000000000000000000000000000000000000000000000000000000000"
          ],
          "data": "0x00000000000000000000000000000000000000000000000000000000000000000000000000000000000000000000000000000000000000000000000000000040000000000000000000000000000000000000000000000000000000000000006063656c6f2d68756e743a2f2f68756e742f302f636c75652f302f746f6b656e2f31316638373733346236303764353031356564636262303836613764326237323536336234316638656337396539346639333966663464376232326261366365",
          "blockHash": "0xbb37dc8a6116afb1ae2efeb94a62b653d8b0ed8578d6b57474be8495684073eb",
          "blockNumber": "0xb2cbd7",
          "transactionHash": "0x1d7879251385d6c8d701dadb59c089afe3ec0cd3910e8f6423799dacfd92abdc",
          "transactionIndex": "0x3",
          "logIndex": "0x4",
          "removed": false
        }
      ],
      "logsBloom": "0x00000400000000000000000000000000000000000000000000000000000000000000000000000000000000000000000000000000000000002000000000000000000000000010000000000000000000000000000000000000000000000000000000000000020000000000000000000800080000000000000000000000000000000000010008000000000000000000000000000000000000000000000000000000000000000000080000000000000000000000000000000000000000000000000000000820000000000000000000000000000000000000000000000000000020000000010000000000000000000000804000000000000000000000000000000000",
      "type": "0x2",
      "transactionHash": "0x1d7879251385d6c8d701dadb59c089afe3ec0cd3910e8f6423799dacfd92abdc",
      "transactionIndex": "0x3",
      "blockHash": "0xbb37dc8a6116afb1ae2efeb94a62b653d8b0ed8578d6b57474be8495684073eb",
      "blockNumber": "0xb2cbd7",
      "gasUsed": "0x509e3",
      "effectiveGasPrice": "0x5d21dba01",
      "from": "0xe6ffe14186c6ec0e7c39270dfb2281759ce75f70",
      "to": "0xaf0ab6a61c38a5100d1f268550a2e0e0b77e099a",
      "contractAddress": null,
      "l1BaseFeeScalar": "0x0",
      "l1BlobBaseFee": "0x1",
      "l1BlobBaseFeeScalar": "0x0",
      "l1Fee": "0x0",
      "l1GasPrice": "0x9",
      "l1GasUsed": "0x7e6"
    },
    {
      "status": "0x1",
      "cumulativeGasUsed": "0xdc342",
      "logs": [
        {
          "address": "0x95e839007ab91261586df829358fd16274d93678",
          "topics": [
            "0xb79b7b154ffe48013fed56fafd7a5cd21aba59aec515ff7f4bc6bf30db1b293d",
            "0x0000000000000000000000000000000000000000000000000000000000000000"
          ],
          "data": "0x00000000000000000000000000000000000000000000000000000000000000010000000000000000000000000000000000000000000000000429d069189e0000",
          "blockHash": "0xbb37dc8a6116afb1ae2efeb94a62b653d8b0ed8578d6b57474be8495684073eb",
          "blockNumber": "0xb2cbd7",
          "transactionHash": "0x05f6a00102af91cff8ac6e4ab2f5abc6d5745d8249961a30774434ff05efb7b0",
          "transactionIndex": "0x4",
          "logIndex": "0x5",
          "removed": false
        },
        {
          "address": "0xaf0ab6a61c38a5100d1f268550a2e0e0b77e099a",
          "topics": [
            "0x761f939497257d00446149a5137ed85ce054943dc7a356c104530249c6a94d20",
            "0x0000000000000000000000000000000000000000000000000000000000000000"
          ],
          "data": "0x00000000000000000000000000000000000000000000000000000000000000010000000000000000000000000000000000000000000000000000000000000040000000000000000000000000000000000000000000000000000000000000006063656c6f2d68756e743a2f2f68756e742f302f636c75652f312f746f6b656e2f37633763336137356434366130663935313138643362313039663336626538613166303331363534376266336537623239643066653065343462383537313135",
          "blockHash": "0xbb37dc8a6116afb1ae2efeb94a62b653d8b0ed8578d6b57474be8495684073eb",
          "blockNumber": "0xb2cbd7",
          "transactionHash": "0x05f6a00102af91cff8ac6e4ab2f5abc6d5745d8249961a30774434ff05efb7b0",
          "transactionIndex": "0x4",
          "logIndex": "0x6",
          "removed": false
        }
      ],
      "logsBloom": "0x00000400000000000000000000000000000000000000000000000000000000000000000000000000000000000000000000000000000000002000000000000000000000000010000000000000000000000000000000000000000000000000000000000000020000000000000000000800080000000000000000000000000000000000010008000000000000000000000000000000000000000000000000000000000000000000080000000000000000000000000000000000000000000000000000000820000000000000000000000000000000000000000000000000000020000000010000000000000000000000804000000000000000000000000000000000",
      "type": "0x2",
      "transactionHash": "0x05f6a00102af91cff8ac6e4ab2f5abc6d5745d8249961a30774434ff05efb7b0",
      "transactionIndex": "0x4",
      "blockHash": "0xbb37dc8a6116afb1ae2efeb94a62b653d8b0ed8578d6b57474be8495684073eb",
      "blockNumber": "0xb2cbd7",
      "gasUsed": "0x49499",
      "effectiveGasPrice": "0x5d21dba01",
      "from": "0xe6ffe14186c6ec0e7c39270dfb2281759ce75f70",
      "to": "0xaf0ab6a61c38a5100d1f268550a2e0e0b77e099a",
      "contractAddress": null,
      "l1BaseFeeScalar": "0x0",
      "l1BlobBaseFee": "0x1",
      "l1BlobBaseFeeScalar": "0x0",
      "l1Fee": "0x0",
      "l1GasPrice": "0x9",
      "l1GasUsed": "0x7e6"
    },
    {
      "status": "0x1",
      "cumulativeGasUsed": "0x12586b",
      "logs": [
        {
          "address": "0x95e839007ab91261586df829358fd16274d93678",
          "topics": [
            "0xb79b7b154ffe48013fed56fafd7a5cd21aba59aec515ff7f4bc6bf30db1b293d",
            "0x0000000000000000000000000000000000000000000000000000000000000000"
          ],
          "data": "0x000000000000000000000000000000000000000000000000000000000000000200000000000000000000000000000000000000000000000002c68af0bb140000",
          "blockHash": "0xbb37dc8a6116afb1ae2efeb94a62b653d8b0ed8578d6b57474be8495684073eb",
          "blockNumber": "0xb2cbd7",
          "transactionHash": "0x994518dc91d4a6ba0fa3b939b422a79437e0686ccaf68ecff0108ae7c976d5e2",
          "transactionIndex": "0x5",
          "logIndex": "0x7",
          "removed": false
        },
        {
          "address": "0xaf0ab6a61c38a5100d1f268550a2e0e0b77e099a",
          "topics": [
            "0x761f939497257d00446149a5137ed85ce054943dc7a356c104530249c6a94d20",
            "0x0000000000000000000000000000000000000000000000000000000000000000"
          ],
          "data": "0x00000000000000000000000000000000000000000000000000000000000000020000000000000000000000000000000000000000000000000000000000000040000000000000000000000000000000000000000000000000000000000000006063656c6f2d68756e743a2f2f68756e742f302f636c75652f322f746f6b656e2f31636566666561633664636637306664333330633738303931613532666536323830333138613435333536643665386361346162333764376434303163623166",
          "blockHash": "0xbb37dc8a6116afb1ae2efeb94a62b653d8b0ed8578d6b57474be8495684073eb",
          "blockNumber": "0xb2cbd7",
          "transactionHash": "0x994518dc91d4a6ba0fa3b939b422a79437e0686ccaf68ecff0108ae7c976d5e2",
          "transactionIndex": "0x5",
          "logIndex": "0x8",
          "removed": false
        }
      ],
      "logsBloom": "0x00000400000000000000000000000000000000000000000000000000000000000000000000000000000000000000000000000000000000002000000000000000000000000010000000000000000000000000000000000000000000000000000000000000020000000000000000000800080000000000000000000000000000000000010008000000000000000000000000000000000000000000000000000000000000000000080000000000000000000000000000000000000000000000000000000820000000000000000000000000000000000000000000000000000020000000010000000000000000000000804000000000000000000000000000000000",
      "type": "0x2",
      "transactionHash": "0x994518dc91d4a6ba0fa3b939b422a79437e0686ccaf68ecff0108ae7c976d5e2",
      "transactionIndex": "0x5",
      "blockHash": "0xbb37dc8a6116afb1ae2efeb94a62b653d8b0ed8578d6b57474be8495684073eb",
      "blockNumber": "0xb2cbd7",
      "gasUsed": "0x49529",
      "effectiveGasPrice": "0x5d21dba01",
      "from": "0xe6ffe14186c6ec0e7c39270dfb2281759ce75f70",
      "to": "0xaf0ab6a61c38a5100d1f268550a2e0e0b77e099a",
      "contractAddress": null,
      "l1BaseFeeScalar": "0x0",
      "l1BlobBaseFee": "0x1",
      "l1BlobBaseFeeScalar": "0x0",
      "l1Fee": "0x0",
      "l1GasPrice": "0x9",
      "l1GasUsed": "0x8d7"
    },
    {
      "status": "0x1",
      "cumulativeGasUsed": "0x130fbb",
      "logs": [
        {
          "address": "0x9a7be83f04ee0f092ff4f0da2a9e96adb2de1925",
          "topics": [
            "0x8c5be1e5ebec7d5bd14f71427d1e84f3dd0314c0f7b2291e5b200ac8c7c3b925",
            "0x000000000000000000000000e6ffe14186c6ec0e7c39270dfb2281759ce75f70",
            "0x000000000000000000000000af0ab6a61c38a5100d1f268550a2e0e0b77e099a"
          ],
          "data": "0x0000000000000000000000000000000000000000000000000de0b6b3a7640000",
          "blockHash": "0xbb37dc8a6116afb1ae2efeb94a62b653d8b0ed8578d6b57474be8495684073eb",
          "blockNumber": "0xb2cbd7",
          "transactionHash": "0x0582f582226cd5bc14fcf47e8c2e9e4e8fb03e776c3df47b0a1ec1638f8e7c04",
          "transactionIndex": "0x6",
          "logIndex": "0x9",
          "removed": false
        }
      ],
      "logsBloom": "0x000000000000000080000000000000000000000000000004000000000000000000000000000000000000000000000000000000000000000000000000002000000000000000000000000000008000000000000000000000000000000000000000000000000000000000000000000000000000000000000000000000000000000000000000000000000000000000000000000000000000000000000000000102000200000000000000000000000000000000000000000000000000000000000000000000000000000000000000000000000000000000000000000c0080000000000010000000200000000000000000000000000000000000000000000000000000",
      "type": "0x2",
      "transactionHash": "0x0582f582226cd5bc14fcf47e8c2e9e4e8fb03e776c3df47b0a1ec1638f8e7c04",
      "transactionIndex": "0x6",
      "blockHash": "0xbb37dc8a6116afb1ae2efeb94a62b653d8b0ed8578d6b57474be8495684073eb",
      "blockNumber": "0xb2cbd7",
      "gasUsed": "0xb750",
      "effectiveGasPrice": "0x5d21dba01",
      "from": "0xe6ffe14186c6ec0e7c39270dfb2281759ce75f70",
      "to": "0x9a7be83f04ee0f092ff4f0da2a9e96adb2de1925",
      "contractAddress": null,
      "l1BaseFeeScalar": "0x0",
      "l1BlobBaseFee": "0x1",
      "l1BlobBaseFeeScalar": "0x0",
      "l1Fee": "0x0",
      "l1GasPrice": "0x9",
      "l1GasUsed": "0x640"
    },
    {
      "status": "0x1",
      "cumulativeGasUsed": "0x1515f3",
      "logs": [
        {
          "address": "0x9a7be83f04ee0f092ff4f0da2a9e96adb2de1925",
          "topics": [
            "0xddf252ad1be2c89b69c2b068fc378daa952ba7f163c4a11628f55a4df523b3ef",
            "0x000000000000000000000000e6ffe14186c6ec0e7c39270dfb2281759ce75f70",
            "0x000000000000000000000000af0ab6a61c38a5100d1f268550a2e0e0b77e099a"
          ],
          "data": "0x0000000000000000000000000000000000000000000000000de0b6b3a7640000",
          "blockHash": "0xbb37dc8a6116afb1ae2efeb94a62b653d8b0ed8578d6b57474be8495684073eb",
          "blockNumber": "0xb2cbd7",
          "transactionHash": "0xed94f0c707994b7764e743cbdaec8dda3f12206936ec001a8ad0ad889cddb762",
          "transactionIndex": "0x7",
          "logIndex": "0xa",
          "removed": false
        },
        {
          "address": "0x9a7be83f04ee0f092ff4f0da2a9e96adb2de1925",
          "topics": [
            "0x8c5be1e5ebec7d5bd14f71427d1e84f3dd0314c0f7b2291e5b200ac8c7c3b925",
            "0x000000000000000000000000af0ab6a61c38a5100d1f268550a2e0e0b77e099a",
            "0x00000000000000000000000095e839007ab91261586df829358fd16274d93678"
          ],
          "data": "0x0000000000000000000000000000000000000000000000000de0b6b3a7640000",
          "blockHash": "0xbb37dc8a6116afb1ae2efeb94a62b653d8b0ed8578d6b57474be8495684073eb",
          "blockNumber": "0xb2cbd7",
          "transactionHash": "0xed94f0c707994b7764e743cbdaec8dda3f12206936ec001a8ad0ad889cddb762",
          "transactionIndex": "0x7",
          "logIndex": "0xb",
          "removed": false
        },
        {
          "address": "0x9a7be83f04ee0f092ff4f0da2a9e96adb2de1925",
          "topics": [
            "0xddf252ad1be2c89b69c2b068fc378daa952ba7f163c4a11628f55a4df523b3ef",
            "0x000000000000000000000000af0ab6a61c38a5100d1f268550a2e0e0b77e099a",
            "0x00000000000000000000000095e839007ab91261586df829358fd16274d93678"
          ],
          "data": "0x0000000000000000000000000000000000000000000000000de0b6b3a7640000",
          "blockHash": "0xbb37dc8a6116afb1ae2efeb94a62b653d8b0ed8578d6b57474be8495684073eb",
          "blockNumber": "0xb2cbd7",
          "transactionHash": "0xed94f0c707994b7764e743cbdaec8dda3f12206936ec001a8ad0ad889cddb762",
          "transactionIndex": "0x7",
          "logIndex": "0xc",
          "removed": false
        },
        {
          "address": "0x95e839007ab91261586df829358fd16274d93678",
          "topics": [
            "0x78d546d8b8a7f40ab99e496db8532aa8c7110533a78cf8e810befeb1c92160d0",
            "0x0000000000000000000000000000000000000000000000000000000000000000",
            "0x000000000000000000000000af0ab6a61c38a5100d1f268550a2e0e0b77e099a"
          ],
          "data": "0x0000000000000000000000000000000000000000000000000de0b6b3a7640000",
          "blockHash": "0xbb37dc8a6116afb1ae2efeb94a62b653d8b0ed8578d6b57474be8495684073eb",
          "blockNumber": "0xb2cbd7",
          "transactionHash": "0xed94f0c707994b7764e743cbdaec8dda3f12206936ec001a8ad0ad889cddb762",
          "transactionIndex": "0x7",
          "logIndex": "0xd",
          "removed": false
        },
        {
          "address": "0xaf0ab6a61c38a5100d1f268550a2e0e0b77e099a",
          "topics": [
            "0x15b254e6d59546e05673736768f3699e31af72c8dab1194ee701ae85f515b408",
            "0x0000000000000000000000000000000000000000000000000000000000000000"
          ],
          "data": "0x0000000000000000000000000000000000000000000000000de0b6b3a7640000",
          "blockHash": "0xbb37dc8a6116afb1ae2efeb94a62b653d8b0ed8578d6b57474be8495684073eb",
          "blockNumber": "0xb2cbd7",
          "transactionHash": "0xed94f0c707994b7764e743cbdaec8dda3f12206936ec001a8ad0ad889cddb762",
          "transactionIndex": "0x7",
          "logIndex": "0xe",
          "removed": false
        }
      ],
      "logsBloom": "0x00000100000000008000000000000000000000000000000400000000000000000000000000000000000000000000000000000000000000202000000000200000000000000000000000000008a000100000000000000000000000000000000000000000000200000000000000000008000800000000000000000000100000000000000000000000000000000000000000008000000000000000000000000102000200000000000800000000000000000000000000000008000000000000000000000000220000000000000000000000000000000000000000000c0180040020000010010000200200000000000000800000000000000000000000000000000000",
      "type": "0x2",
      "transactionHash": "0xed94f0c707994b7764e743cbdaec8dda3f12206936ec001a8ad0ad889cddb762",
      "transactionIndex": "0x7",
      "blockHash": "0xbb37dc8a6116afb1ae2efeb94a62b653d8b0ed8578d6b57474be8495684073eb",
      "blockNumber": "0xb2cbd7",
      "gasUsed": "0x20638",
      "effectiveGasPrice": "0x5d21dba01",
      "from": "0xe6ffe14186c6ec0e7c39270dfb2281759ce75f70",
      "to": "0xaf0ab6a61c38a5100d1f268550a2e0e0b77e099a",
      "contractAddress": null,
      "l1BaseFeeScalar": "0x0",
      "l1BlobBaseFee": "0x1",
      "l1BlobBaseFeeScalar": "0x0",
      "l1Fee": "0x0",
      "l1GasPrice": "0x9",
      "l1GasUsed": "0x640"
    },
    {
      "status": "0x1",
      "cumulativeGasUsed": "0x1580da",
      "logs": [
        {
          "address": "0xaf0ab6a61c38a5100d1f268550a2e0e0b77e099a",
          "topics": [
            "0xf3de52a7ca1a3a37721fcef7dae4c389c0fe6f3b746e223f73153a838b7d1caf",
            "0x0000000000000000000000000000000000000000000000000000000000000000"
          ],
          "data": "0x",
          "blockHash": "0xbb37dc8a6116afb1ae2efeb94a62b653d8b0ed8578d6b57474be8495684073eb",
          "blockNumber": "0xb2cbd7",
          "transactionHash": "0x8df5537e083dfc208eaeda35bd96516aa0b26c337b52a218d4000a3972e134a0",
          "transactionIndex": "0x8",
          "logIndex": "0xf",
          "removed": false
        }
      ],
      "logsBloom": "0x00000000000010000000000000000000000000000000000000000000000000000000000000000000000000000000000000000000000000002000000000000000000000000000000000000000000000000000000000000000000000000000000000000000020000000000000000000800080000000000000000000000000000000000000000000000000000000000000000000000000000000000000000000000000000000000000002000000000000000000000000000000000000000000000000000000000000000000000000000000000000000000000000000000000020000000000000000000000000000000800000000000000000000100000000000000",
      "type": "0x2",
      "transactionHash": "0x8df5537e083dfc208eaeda35bd96516aa0b26c337b52a218d4000a3972e134a0",
      "transactionIndex": "0x8",
      "blockHash": "0xbb37dc8a6116afb1ae2efeb94a62b653d8b0ed8578d6b57474be8495684073eb",
      "blockNumber": "0xb2cbd7",
      "gasUsed": "0x6ae7",
      "effectiveGasPrice": "0x5d21dba01",
      "from": "0xe6ffe14186c6ec0e7c39270dfb2281759ce75f70",
      "to": "0xaf0ab6a61c38a5100d1f268550a2e0e0b77e099a",
      "contractAddress": null,
      "l1BaseFeeScalar": "0x0",
      "l1BlobBaseFee": "0x1",
      "l1BlobBaseFeeScalar": "0x0",
      "l1Fee": "0x0",
      "l1GasPrice": "0x9",
      "l1GasUsed": "0x640"
    }
  ],
  "libraries": [],
  "pending": [],
  "returns": {},
  "timestamp": 1765001580166,
  "chain": 11142220,
  "commit": "c05392f"
}